{
  "contractName": "ARTXSharingPool",
  "abi": [
    {
      "inputs": [
        {
          "internalType": "address",
          "name": "_erc20Address",
          "type": "address"
        }
      ],
      "stateMutability": "nonpayable",
      "type": "constructor"
    },
    {
      "inputs": [],
      "name": "artxAddress",
      "outputs": [
        {
          "internalType": "address",
          "name": "",
          "type": "address"
        }
      ],
      "stateMutability": "view",
      "type": "function",
      "constant": true
    },
    {
      "inputs": [],
      "name": "artxContract",
      "outputs": [
        {
          "internalType": "contract ERC20",
          "name": "",
          "type": "address"
        }
      ],
      "stateMutability": "view",
      "type": "function",
      "constant": true
    },
    {
      "inputs": [
        {
          "internalType": "address",
          "name": "",
          "type": "address"
        }
      ],
      "name": "balances",
      "outputs": [
        {
          "internalType": "uint256",
          "name": "",
          "type": "uint256"
        }
      ],
      "stateMutability": "view",
      "type": "function",
      "constant": true
    },
    {
      "inputs": [],
      "name": "owner",
      "outputs": [
        {
          "internalType": "address",
          "name": "",
          "type": "address"
        }
      ],
      "stateMutability": "view",
      "type": "function",
      "constant": true
    },
    {
      "inputs": [],
      "name": "rewardAmount",
      "outputs": [
        {
          "internalType": "uint256",
          "name": "",
          "type": "uint256"
        }
      ],
      "stateMutability": "view",
      "type": "function",
      "constant": true
    },
    {
      "inputs": [],
      "name": "totalDepositAmount",
      "outputs": [
        {
          "internalType": "uint256",
          "name": "",
          "type": "uint256"
        }
      ],
      "stateMutability": "view",
      "type": "function",
      "constant": true
    },
    {
      "inputs": [
        {
          "internalType": "address",
          "name": "",
          "type": "address"
        }
      ],
      "name": "userInfo",
      "outputs": [
        {
          "internalType": "address",
          "name": "userAddress",
          "type": "address"
        },
        {
          "internalType": "uint256",
          "name": "depositAmount",
          "type": "uint256"
        },
        {
          "internalType": "uint256",
          "name": "rewardDiv",
          "type": "uint256"
        },
        {
          "internalType": "uint256",
          "name": "claimedReward",
          "type": "uint256"
        }
      ],
      "stateMutability": "view",
      "type": "function",
      "constant": true
    },
    {
      "stateMutability": "payable",
      "type": "receive",
      "payable": true
    },
    {
      "inputs": [
        {
          "internalType": "uint256",
          "name": "_amount",
          "type": "uint256"
        }
      ],
      "name": "devDonateithdraw",
      "outputs": [],
      "stateMutability": "nonpayable",
      "type": "function"
    },
    {
      "inputs": [],
      "name": "returnContractARTX",
      "outputs": [
        {
          "internalType": "uint256",
          "name": "",
          "type": "uint256"
        }
      ],
      "stateMutability": "view",
      "type": "function",
      "constant": true
    },
    {
      "inputs": [],
      "name": "returnARTXbalance",
      "outputs": [
        {
          "internalType": "uint256",
          "name": "",
          "type": "uint256"
        }
      ],
      "stateMutability": "view",
      "type": "function",
      "constant": true
    },
    {
      "inputs": [],
      "name": "returnTotalRewardAmount",
      "outputs": [
        {
          "internalType": "uint256",
          "name": "",
          "type": "uint256"
        }
      ],
      "stateMutability": "view",
      "type": "function",
      "constant": true
    },
    {
      "inputs": [
        {
          "internalType": "address",
          "name": "_newDev",
          "type": "address"
        }
      ],
      "name": "changeOwnership",
      "outputs": [],
      "stateMutability": "nonpayable",
      "type": "function"
    },
    {
      "inputs": [],
      "name": "returnDepositAmount",
      "outputs": [
        {
          "internalType": "uint256",
          "name": "",
          "type": "uint256"
        }
      ],
      "stateMutability": "view",
      "type": "function",
      "constant": true
    },
    {
      "inputs": [],
      "name": "returnTotalDepositAmount",
      "outputs": [
        {
          "internalType": "uint256",
          "name": "",
          "type": "uint256"
        }
      ],
      "stateMutability": "view",
      "type": "function",
      "constant": true
    },
    {
      "inputs": [
        {
          "internalType": "uint256",
          "name": "_depositAmount",
          "type": "uint256"
        }
      ],
      "name": "depositARTX",
      "outputs": [
        {
          "internalType": "bool",
          "name": "",
          "type": "bool"
        }
      ],
      "stateMutability": "nonpayable",
      "type": "function"
    },
    {
      "inputs": [],
      "name": "claimReward",
      "outputs": [
        {
          "internalType": "uint256",
          "name": "",
          "type": "uint256"
        }
      ],
      "stateMutability": "nonpayable",
      "type": "function"
    },
    {
      "inputs": [],
      "name": "withdraw",
      "outputs": [
        {
          "internalType": "uint256",
          "name": "",
          "type": "uint256"
        }
      ],
      "stateMutability": "nonpayable",
      "type": "function"
    }
  ],
  "bytecode": "0x608060405233600260006101000a81548173ffffffffffffffffffffffffffffffffffffffff021916908373ffffffffffffffffffffffffffffffffffffffff16021790555034801561005157600080fd5b5060405161145b38038061145b8339818101604052602081101561007457600080fd5b8101908080519060200190929190505050806000806101000a81548173ffffffffffffffffffffffffffffffffffffffff021916908373ffffffffffffffffffffffffffffffffffffffff16021790555060008190505050611380806100db6000396000f3fe6080604052600436106101025760003560e01c80638da5cb5b11610095578063ad491b8511610064578063ad491b851461044f578063b88a802f1461047a578063c5408d50146104a5578063d26c95c5146104d0578063f7b2a7be146104fb57610109565b80638da5cb5b14610361578063ab4b0515146103a2578063ab9db0b7146103e3578063ac532cea1461042457610109565b80632af4c31e116100d15780632af4c31e146102595780633ccfd60b146102aa57806341b452a3146102d55780638cb398de1461032657610109565b80630b5956ad1461010e5780631959a0021461013957806327e235e3146101c957806329a255501461022e57610109565b3661010957005b600080fd5b34801561011a57600080fd5b50610123610526565b6040518082815260200191505060405180910390f35b34801561014557600080fd5b506101886004803603602081101561015c57600080fd5b81019080803573ffffffffffffffffffffffffffffffffffffffff1690602001909291905050506105f1565b604051808573ffffffffffffffffffffffffffffffffffffffff16815260200184815260200183815260200182815260200194505050505060405180910390f35b3480156101d557600080fd5b50610218600480360360208110156101ec57600080fd5b81019080803573ffffffffffffffffffffffffffffffffffffffff169060200190929190505050610641565b6040518082815260200191505060405180910390f35b34801561023a57600080fd5b50610243610659565b6040518082815260200191505060405180910390f35b34801561026557600080fd5b506102a86004803603602081101561027c57600080fd5b81019080803573ffffffffffffffffffffffffffffffffffffffff1690602001909291905050506106a3565b005b3480156102b657600080fd5b506102bf6107aa565b6040518082815260200191505060405180910390f35b3480156102e157600080fd5b5061030e600480360360208110156102f857600080fd5b810190808035906020019092919050505061094b565b60405180821515815260200191505060405180910390f35b34801561033257600080fd5b5061035f6004803603602081101561034957600080fd5b8101908080359060200190929190505050610bcc565b005b34801561036d57600080fd5b50610376610cd9565b604051808273ffffffffffffffffffffffffffffffffffffffff16815260200191505060405180910390f35b3480156103ae57600080fd5b506103b7610cff565b604051808273ffffffffffffffffffffffffffffffffffffffff16815260200191505060405180910390f35b3480156103ef57600080fd5b506103f8610d25565b604051808273ffffffffffffffffffffffffffffffffffffffff16815260200191505060405180910390f35b34801561043057600080fd5b50610439610d49565b6040518082815260200191505060405180910390f35b34801561045b57600080fd5b50610464610e2d565b6040518082815260200191505060405180910390f35b34801561048657600080fd5b5061048f610e37565b6040518082815260200191505060405180910390f35b3480156104b157600080fd5b506104ba611014565b6040518082815260200191505060405180910390f35b3480156104dc57600080fd5b506104e561101a565b6040518082815260200191505060405180910390f35b34801561050757600080fd5b506105106110e5565b6040518082815260200191505060405180910390f35b6000600160009054906101000a900473ffffffffffffffffffffffffffffffffffffffff1673ffffffffffffffffffffffffffffffffffffffff166370a08231306040518263ffffffff1660e01b8152600401808273ffffffffffffffffffffffffffffffffffffffff16815260200191505060206040518083038186803b1580156105b157600080fd5b505afa1580156105c5573d6000803e3d6000fd5b505050506040513d60208110156105db57600080fd5b8101908080519060200190929190505050905090565b60046020528060005260406000206000915090508060000160009054906101000a900473ffffffffffffffffffffffffffffffffffffffff16908060010154908060020154908060030154905084565b60036020528060005260406000206000915090505481565b6000600460003373ffffffffffffffffffffffffffffffffffffffff1673ffffffffffffffffffffffffffffffffffffffff16815260200190815260200160002060010154905090565b600260009054906101000a900473ffffffffffffffffffffffffffffffffffffffff1673ffffffffffffffffffffffffffffffffffffffff163373ffffffffffffffffffffffffffffffffffffffff1614610766576040517f08c379a00000000000000000000000000000000000000000000000000000000081526004018080602001828103825260198152602001807f6f6e6c79206465762063616e206368616e6765206f776e65720000000000000081525060200191505060405180910390fd5b80600260006101000a81548173ffffffffffffffffffffffffffffffffffffffff021916908373ffffffffffffffffffffffffffffffffffffffff16021790555050565b600080600460003373ffffffffffffffffffffffffffffffffffffffff1673ffffffffffffffffffffffffffffffffffffffff16815260200190815260200160002090506000816001015490506000811161086d576040517f08c379a000000000000000000000000000000000000000000000000000000000815260040180806020018281038252601a8152602001807f4e4f2072656d61696e696e67206465706f736974416d6f756e7400000000000081525060200191505060405180910390fd5b60008260010181905550600160009054906101000a900473ffffffffffffffffffffffffffffffffffffffff1673ffffffffffffffffffffffffffffffffffffffff1663a9059cbb33836040518363ffffffff1660e01b8152600401808373ffffffffffffffffffffffffffffffffffffffff16815260200182815260200192505050602060405180830381600087803b15801561090a57600080fd5b505af115801561091e573d6000803e3d6000fd5b505050506040513d602081101561093457600080fd5b810190808051906020019092919050505050505090565b600080600460003373ffffffffffffffffffffffffffffffffffffffff1673ffffffffffffffffffffffffffffffffffffffff168152602001908152602001600020905060008311610a05576040517f08c379a000000000000000000000000000000000000000000000000000000000815260040180806020018281038252601e8152602001807f4e6f20616d6f756e74206f662041525458206973206465706f7369746564000081525060200191505060405180910390fd5b338160000160006101000a81548173ffffffffffffffffffffffffffffffffffffffff021916908373ffffffffffffffffffffffffffffffffffffffff160217905550610a9c600654600360003373ffffffffffffffffffffffffffffffffffffffff1673ffffffffffffffffffffffffffffffffffffffff168152602001908152602001600020546110eb90919063ffffffff16565b8160020181905550610ab7838461117490919063ffffffff16565b8160010181905550610ad48360065461117490919063ffffffff16565b50600160009054906101000a900473ffffffffffffffffffffffffffffffffffffffff1673ffffffffffffffffffffffffffffffffffffffff166323b872dd3330866040518463ffffffff1660e01b8152600401808473ffffffffffffffffffffffffffffffffffffffff1681526020018373ffffffffffffffffffffffffffffffffffffffff1681526020018281526020019350505050602060405180830381600087803b158015610b8657600080fd5b505af1158015610b9a573d6000803e3d6000fd5b505050506040513d6020811015610bb057600080fd5b8101908080519060200190929190505050506001915050919050565b600260009054906101000a900473ffffffffffffffffffffffffffffffffffffffff1673ffffffffffffffffffffffffffffffffffffffff163373ffffffffffffffffffffffffffffffffffffffff1614610c8f576040517f08c379a00000000000000000000000000000000000000000000000000000000081526004018080602001828103825260198152602001807f6f6e6c79206465762063616e2067657420646f6e6174696f6e0000000000000081525060200191505060405180910390fd5b3373ffffffffffffffffffffffffffffffffffffffff166108fc829081150290604051600060405180830381858888f19350505050158015610cd5573d6000803e3d6000fd5b5050565b600260009054906101000a900473ffffffffffffffffffffffffffffffffffffffff1681565b600160009054906101000a900473ffffffffffffffffffffffffffffffffffffffff1681565b60008054906101000a900473ffffffffffffffffffffffffffffffffffffffff1681565b600080610e24600654600160009054906101000a900473ffffffffffffffffffffffffffffffffffffffff1673ffffffffffffffffffffffffffffffffffffffff166370a08231306040518263ffffffff1660e01b8152600401808273ffffffffffffffffffffffffffffffffffffffff16815260200191505060206040518083038186803b158015610ddb57600080fd5b505afa158015610def573d6000803e3d6000fd5b505050506040513d6020811015610e0557600080fd5b81019080805190602001909291905050506111fc90919063ffffffff16565b90508091505090565b6000600654905090565b600080600460003373ffffffffffffffffffffffffffffffffffffffff1673ffffffffffffffffffffffffffffffffffffffff16815260200190815260200160002090506000610e85610d49565b90506000826002015490506000836003015490506000610ec082610eb2858761127f90919063ffffffff16565b6111fc90919063ffffffff16565b9050610ed981866003015461117490919063ffffffff16565b856003018190555060008111610f3a576040517f08c379a00000000000000000000000000000000000000000000000000000000081526004018080602001828103825260248152602001806113066024913960400191505060405180910390fd5b600160009054906101000a900473ffffffffffffffffffffffffffffffffffffffff1673ffffffffffffffffffffffffffffffffffffffff1663a9059cbb33836040518363ffffffff1660e01b8152600401808373ffffffffffffffffffffffffffffffffffffffff16815260200182815260200192505050602060405180830381600087803b158015610fcd57600080fd5b505af1158015610fe1573d6000803e3d6000fd5b505050506040513d6020811015610ff757600080fd5b810190808051906020019092919050505050809550505050505090565b60065481565b6000600160009054906101000a900473ffffffffffffffffffffffffffffffffffffffff1673ffffffffffffffffffffffffffffffffffffffff166370a08231336040518263ffffffff1660e01b8152600401808273ffffffffffffffffffffffffffffffffffffffff16815260200191505060206040518083038186803b1580156110a557600080fd5b505afa1580156110b9573d6000803e3d6000fd5b505050506040513d60208110156110cf57600080fd5b8101908080519060200190929190505050905090565b60055481565b6000808211611162576040517f08c379a000000000000000000000000000000000000000000000000000000000815260040180806020018281038252601a8152602001807f536166654d6174683a206469766973696f6e206279207a65726f00000000000081525060200191505060405180910390fd5b81838161116b57fe5b04905092915050565b6000808284019050838110156111f2576040517f08c379a000000000000000000000000000000000000000000000000000000000815260040180806020018281038252601b8152602001807f536166654d6174683a206164646974696f6e206f766572666c6f77000000000081525060200191505060405180910390fd5b8091505092915050565b600082821115611274576040517f08c379a000000000000000000000000000000000000000000000000000000000815260040180806020018281038252601e8152602001807f536166654d6174683a207375627472616374696f6e206f766572666c6f77000081525060200191505060405180910390fd5b818303905092915050565b60008083141561129257600090506112ff565b60008284029050828482816112a357fe5b04146112fa576040517f08c379a000000000000000000000000000000000000000000000000000000000815260040180806020018281038252602181526020018061132a6021913960400191505060405180910390fd5b809150505b9291505056fe4e6f2072656d61696e696e6720616d6f756e74206f6620636c61696d6564526577617264536166654d6174683a206d756c7469706c69636174696f6e206f766572666c6f77a26469706673582212209db676b1bc1da01388468be38dc7bd9cd1ea4e4a15ecb861bcd706db439fd46964736f6c634300060c0033",
  "immutableReferences": {},
  "source": "// SPDX-License-Identifier: MIT\npragma solidity >=0.4.22 <0.9.0;\nimport \"@openzeppelin/contracts/token/ERC20/ERC20.sol\";\nimport \"@openzeppelin/contracts/math/SafeMath.sol\";\n\n\n\n\n\ncontract ARTXSharingPool {\n\n\n\n  /* \n\n  TODO: \n  - call function from deploted contract basic testing\n    - https://trello.com/c/qj0LGoV3/209-call-function-of-other-contract\n\n  - function to check the balance of ARTX in this address  , which would be sub totalDepositAmount;\n  https://etherscan.io/address/0x741b0428efdf4372a8df6fb54b018db5e5ab7710#code ARTXToken \n  - Mock ARTX token for testing function\n  - Deploy in Testnet\n\n  \n  \n  */\n\n using SafeMath for uint256;\n\n\n\n  address public artxAddress;\n  ERC20 public artxContract;\n  address public owner = msg.sender;\n  mapping(address=> uint256) public balances;\n  mapping(address => UserInfo) public userInfo;\n  uint256 public rewardAmount;\n\n  \n\n  struct UserInfo {\n    address userAddress;\n    uint256 depositAmount; \n    uint256 rewardDiv;\n    uint256 claimedReward;\n   \n  }\n  \n\n\n  uint256 public totalDepositAmount;\n\n\n  constructor (address _erc20Address) public {\n    \n    artxAddress = _erc20Address;\n    ERC20 artxContract = ERC20(_erc20Address);\n  } \n\n\n  // DEV\n\n\n  receive() external payable {\n    // Send ETH to this contract for supporting dev\n    // Thank you for your support !\n  \n  }\n\n   function devDonateithdraw(uint256 _amount) public {\n    // Disclaimer: this function only to withdraw ETH donation in the contract, NOT ARTX.Your ARTX is SAFE\n    require(msg.sender == owner, \"only dev can get donation\");\n    msg.sender.transfer(_amount);\n  }\n\n  // DEV \n\n  \n\n  function returnContractARTX() public view returns (uint256) {\n    return artxContract.balanceOf(address(this));\n  }\n\n  function returnARTXbalance() public view returns (uint256) {\n    return artxContract.balanceOf(msg.sender);\n  }\n\n   function returnTotalRewardAmount() public view returns (uint256) {\n    uint256 rewardAmounts; \n    rewardAmounts = artxContract.balanceOf(address(this)).sub(totalDepositAmount);\n    return rewardAmounts;\n  }\n\n\n\n \n\n\n  function changeOwnership(address _newDev) public {\n    require(msg.sender ==owner, \"only dev can change owner\");\n    owner = _newDev;\n\n  }\n\n\n \n\n  \n\n   function returnDepositAmount() public view returns (uint256) {\n     return userInfo[msg.sender].depositAmount;\n   }\n\n    function returnTotalDepositAmount() public view returns (uint256) {\n     return totalDepositAmount;\n   }\n\n  \n\n\n  \n    \n\n\n  function depositARTX (uint256 _depositAmount) public returns (bool){\n    UserInfo storage user = userInfo[msg.sender];\n    require(_depositAmount > 0 , \"No amount of ARTX is deposited\");\n     user.userAddress = msg.sender;\n     user.rewardDiv =  balances[msg.sender].div(totalDepositAmount);\n     user.depositAmount = _depositAmount.add(_depositAmount);\n    totalDepositAmount.add(_depositAmount);\n    artxContract.transferFrom(msg.sender,address(this),_depositAmount);\n    // Check if new users\n    return true;\n  }\n \n\n  function claimReward() public  returns (uint256) {\n    UserInfo storage user = userInfo[msg.sender];\n    uint256 totalReward = returnTotalRewardAmount();\n    uint256 userRewardDiv = user.rewardDiv;\n    uint256 userClaimed = user.claimedReward;\n    uint256 userClaimAmount = totalReward.mul(userRewardDiv).sub(userClaimed);\n    user.claimedReward = user.claimedReward.add(userClaimAmount);\n    require(userClaimAmount > 0 , \"No remaining amount of claimedReward\");\n    artxContract.transfer(msg.sender,userClaimAmount);\n    return userClaimAmount;\n  }\n\n  function withdraw() public returns (uint256) {\n    UserInfo storage user = userInfo[msg.sender];\n    uint256 withdrawAmount = user.depositAmount;\n    require(withdrawAmount > 0 ,\"NO remaining depositAmount\");\n     user.depositAmount = 0;\n    artxContract.transfer(msg.sender,withdrawAmount);\n  }\n\n\n  \n\n  \n  \n\n  \n\n  \n}\n",
  "sourcePath": "/Users/ok/Desktop/Projects/artx-sharing-pool/contracts/ARTXSharingPool.sol",
  "compiler": {
    "name": "solc",
    "version": "0.6.12+commit.27d51765.Emscripten.clang"
  },
  "schemaVersion": "3.3.4",
  "updatedAt": "2021-04-05T01:48:28.826Z",
  "networkType": "ethereum",
  "devdoc": {
    "kind": "dev",
    "methods": {},
    "version": 1
  },
  "userdoc": {
    "kind": "user",
    "methods": {},
    "version": 1
  }
}