{
  "contractName": "SharingPool",
  "abi": [
    {
      "inputs": [
        {
          "internalType": "address",
          "name": "_address",
          "type": "address"
        }
      ],
      "stateMutability": "nonpayable",
      "type": "constructor"
    },
    {
      "inputs": [],
      "name": "artxAddress",
      "outputs": [
        {
          "internalType": "address",
          "name": "",
          "type": "address"
        }
      ],
      "stateMutability": "view",
      "type": "function",
      "constant": true
    },
    {
      "inputs": [],
      "name": "basicPoint10000x",
      "outputs": [
        {
          "internalType": "uint256",
          "name": "",
          "type": "uint256"
        }
      ],
      "stateMutability": "view",
      "type": "function",
      "constant": true
    },
    {
      "inputs": [],
      "name": "dev",
      "outputs": [
        {
          "internalType": "address",
          "name": "",
          "type": "address"
        }
      ],
      "stateMutability": "view",
      "type": "function",
      "constant": true
    },
    {
      "inputs": [],
      "name": "totalDepositAmount",
      "outputs": [
        {
          "internalType": "uint256",
          "name": "",
          "type": "uint256"
        }
      ],
      "stateMutability": "view",
      "type": "function",
      "constant": true
    },
    {
      "inputs": [
        {
          "internalType": "address",
          "name": "",
          "type": "address"
        }
      ],
      "name": "userInfo",
      "outputs": [
        {
          "internalType": "uint256",
          "name": "depositAmount",
          "type": "uint256"
        },
        {
          "internalType": "uint256",
          "name": "rewardDiv",
          "type": "uint256"
        },
        {
          "internalType": "uint256",
          "name": "nextClaimTime",
          "type": "uint256"
        }
      ],
      "stateMutability": "view",
      "type": "function",
      "constant": true
    },
    {
      "stateMutability": "payable",
      "type": "receive",
      "payable": true
    },
    {
      "inputs": [
        {
          "internalType": "address",
          "name": "_address",
          "type": "address"
        }
      ],
      "name": "changeDev",
      "outputs": [],
      "stateMutability": "nonpayable",
      "type": "function"
    },
    {
      "inputs": [
        {
          "internalType": "uint256",
          "name": "_amount",
          "type": "uint256"
        }
      ],
      "name": "devDonateithdraw",
      "outputs": [],
      "stateMutability": "nonpayable",
      "type": "function"
    },
    {
      "inputs": [],
      "name": "returnARTXAddress",
      "outputs": [
        {
          "internalType": "address",
          "name": "",
          "type": "address"
        }
      ],
      "stateMutability": "view",
      "type": "function",
      "constant": true
    },
    {
      "inputs": [
        {
          "internalType": "address",
          "name": "_address",
          "type": "address"
        }
      ],
      "name": "setArtxAddress",
      "outputs": [],
      "stateMutability": "nonpayable",
      "type": "function"
    },
    {
      "inputs": [
        {
          "internalType": "address",
          "name": "_address",
          "type": "address"
        }
      ],
      "name": "getARTXBalance",
      "outputs": [
        {
          "internalType": "uint256",
          "name": "",
          "type": "uint256"
        }
      ],
      "stateMutability": "view",
      "type": "function",
      "constant": true
    },
    {
      "inputs": [],
      "name": "returnContractARTX",
      "outputs": [
        {
          "internalType": "uint256",
          "name": "",
          "type": "uint256"
        }
      ],
      "stateMutability": "view",
      "type": "function",
      "constant": true
    },
    {
      "inputs": [
        {
          "internalType": "uint256",
          "name": "_amount",
          "type": "uint256"
        }
      ],
      "name": "deposit",
      "outputs": [
        {
          "internalType": "bool",
          "name": "",
          "type": "bool"
        }
      ],
      "stateMutability": "nonpayable",
      "type": "function"
    },
    {
      "inputs": [],
      "name": "returnTotalReward",
      "outputs": [
        {
          "internalType": "uint256",
          "name": "",
          "type": "uint256"
        }
      ],
      "stateMutability": "view",
      "type": "function",
      "constant": true
    },
    {
      "inputs": [],
      "name": "withdraw",
      "outputs": [],
      "stateMutability": "nonpayable",
      "type": "function"
    },
    {
      "inputs": [],
      "name": "claim",
      "outputs": [],
      "stateMutability": "nonpayable",
      "type": "function"
    }
  ],
  "bytecode": "0x6080604052336000806101000a81548173ffffffffffffffffffffffffffffffffffffffff021916908373ffffffffffffffffffffffffffffffffffffffff160217905550621c3a9060035534801561005757600080fd5b506040516113b83803806113b88339818101604052602081101561007a57600080fd5b810190808051906020019092919050505080600160006101000a81548173ffffffffffffffffffffffffffffffffffffffff021916908373ffffffffffffffffffffffffffffffffffffffff160217905550506112dc806100dc6000396000f3fe6080604052600436106100ec5760003560e01c806388a8c95c1161008a578063b6b55f2511610059578063b6b55f2514610379578063c5408d50146103ca578063df413255146103f5578063ff45b55314610436576100f3565b806388a8c95c1461026b5780638cb398de146102bc57806391cca3db146102f7578063ab9db0b714610338576100f3565b80634165c517116100c65780634165c517146101ad5780634e71d92d146101fe578063584e08c114610215578063648c801414610240576100f3565b80630b5956ad146100f85780631959a002146101235780633ccfd60b14610196576100f3565b366100f357005b600080fd5b34801561010457600080fd5b5061010d61049b565b6040518082815260200191505060405180910390f35b34801561012f57600080fd5b506101726004803603602081101561014657600080fd5b81019080803573ffffffffffffffffffffffffffffffffffffffff1690602001909291905050506104ab565b60405180848152602001838152602001828152602001935050505060405180910390f35b3480156101a257600080fd5b506101ab6104d5565b005b3480156101b957600080fd5b506101fc600480360360208110156101d057600080fd5b81019080803573ffffffffffffffffffffffffffffffffffffffff16906020019092919050505061069f565b005b34801561020a57600080fd5b506102136107a4565b005b34801561022157600080fd5b5061022a6109ed565b6040518082815260200191505060405180910390f35b34801561024c57600080fd5b506102556109f3565b6040518082815260200191505060405180910390f35b34801561027757600080fd5b506102ba6004803603602081101561028e57600080fd5b81019080803573ffffffffffffffffffffffffffffffffffffffff169060200190929190505050610a30565b005b3480156102c857600080fd5b506102f5600480360360208110156102df57600080fd5b8101908080359060200190929190505050610b34565b005b34801561030357600080fd5b5061030c610c3f565b604051808273ffffffffffffffffffffffffffffffffffffffff16815260200191505060405180910390f35b34801561034457600080fd5b5061034d610c63565b604051808273ffffffffffffffffffffffffffffffffffffffff16815260200191505060405180910390f35b34801561038557600080fd5b506103b26004803603602081101561039c57600080fd5b8101908080359060200190929190505050610c89565b60405180821515815260200191505060405180910390f35b3480156103d657600080fd5b506103df610e39565b6040518082815260200191505060405180910390f35b34801561040157600080fd5b5061040a610e3f565b604051808273ffffffffffffffffffffffffffffffffffffffff16815260200191505060405180910390f35b34801561044257600080fd5b506104856004803603602081101561045957600080fd5b81019080803573ffffffffffffffffffffffffffffffffffffffff169060200190929190505050610e69565b6040518082815260200191505060405180910390f35b60006104a630610e69565b905090565b60046020528060005260406000206000915090508060000154908060010154908060020154905083565b6000600460003373ffffffffffffffffffffffffffffffffffffffff1673ffffffffffffffffffffffffffffffffffffffff16815260200190815260200160002090506000600160009054906101000a900473ffffffffffffffffffffffffffffffffffffffff169050600082600001549050600083600001819055506000836001018190555061057181600254610f3b90919063ffffffff16565b600281905550600081116105ed576040517f08c379a000000000000000000000000000000000000000000000000000000000815260040180806020018281038252601c8152602001807f4e6f7420656e6f75676820746f6b656e20746f2077697468647261770000000081525060200191505060405180910390fd5b8173ffffffffffffffffffffffffffffffffffffffff1663a9059cbb33836040518363ffffffff1660e01b8152600401808373ffffffffffffffffffffffffffffffffffffffff16815260200182815260200192505050602060405180830381600087803b15801561065e57600080fd5b505af1158015610672573d6000803e3d6000fd5b505050506040513d602081101561068857600080fd5b810190808051906020019092919050505050505050565b60008054906101000a900473ffffffffffffffffffffffffffffffffffffffff1673ffffffffffffffffffffffffffffffffffffffff163373ffffffffffffffffffffffffffffffffffffffff1614610760576040517f08c379a00000000000000000000000000000000000000000000000000000000081526004018080602001828103825260138152602001807f6f6e6c79206465762063616e206368616e67650000000000000000000000000081525060200191505060405180910390fd5b80600160006101000a81548173ffffffffffffffffffffffffffffffffffffffff021916908373ffffffffffffffffffffffffffffffffffffffff16021790555050565b6000600460003373ffffffffffffffffffffffffffffffffffffffff1673ffffffffffffffffffffffffffffffffffffffff16815260200190815260200160002090506000600160009054906101000a900473ffffffffffffffffffffffffffffffffffffffff16905060006108186109f3565b90506000610847600354610839866001015485610f8590919063ffffffff16565b61100b90919063ffffffff16565b9050600081116108bf576040517f08c379a000000000000000000000000000000000000000000000000000000000815260040180806020018281038252601b8152602001807f4e6f7420656e6f7567682072657761726420746f20636c61696d20000000000081525060200191505060405180910390fd5b836002015442101561091c576040517f08c379a00000000000000000000000000000000000000000000000000000000081526004018080602001828103825260228152602001806112856022913960400191505060405180910390fd5b61093262278d004261105590919063ffffffff16565b84600201819055508273ffffffffffffffffffffffffffffffffffffffff1663a9059cbb33836040518363ffffffff1660e01b8152600401808373ffffffffffffffffffffffffffffffffffffffff16815260200182815260200192505050602060405180830381600087803b1580156109ab57600080fd5b505af11580156109bf573d6000803e3d6000fd5b505050506040513d60208110156109d557600080fd5b81019080805190602001909291905050505050505050565b60035481565b600080610a13600254610a0530610e69565b610f3b90919063ffffffff16565b90506000811115610a275780915050610a2d565b60009150505b90565b60008054906101000a900473ffffffffffffffffffffffffffffffffffffffff1673ffffffffffffffffffffffffffffffffffffffff163373ffffffffffffffffffffffffffffffffffffffff1614610af1576040517f08c379a00000000000000000000000000000000000000000000000000000000081526004018080602001828103825260178152602001807f6f6e6c79206465762063616e206368616e67652044657600000000000000000081525060200191505060405180910390fd5b806000806101000a81548173ffffffffffffffffffffffffffffffffffffffff021916908373ffffffffffffffffffffffffffffffffffffffff16021790555050565b60008054906101000a900473ffffffffffffffffffffffffffffffffffffffff1673ffffffffffffffffffffffffffffffffffffffff163373ffffffffffffffffffffffffffffffffffffffff1614610bf5576040517f08c379a00000000000000000000000000000000000000000000000000000000081526004018080602001828103825260198152602001807f6f6e6c79206465762063616e2067657420646f6e6174696f6e0000000000000081525060200191505060405180910390fd5b3373ffffffffffffffffffffffffffffffffffffffff166108fc829081150290604051600060405180830381858888f19350505050158015610c3b573d6000803e3d6000fd5b5050565b60008054906101000a900473ffffffffffffffffffffffffffffffffffffffff1681565b600160009054906101000a900473ffffffffffffffffffffffffffffffffffffffff1681565b600080600460003373ffffffffffffffffffffffffffffffffffffffff1673ffffffffffffffffffffffffffffffffffffffff16815260200190815260200160002090506000600160009054906101000a900473ffffffffffffffffffffffffffffffffffffffff169050610d0b84836000015461105590919063ffffffff16565b8260000181905550610d288460025461105590919063ffffffff16565b600281905550610d5b600254610d4d6003548560000154610f8590919063ffffffff16565b61100b90919063ffffffff16565b82600101819055508073ffffffffffffffffffffffffffffffffffffffff166323b872dd3330876040518463ffffffff1660e01b8152600401808473ffffffffffffffffffffffffffffffffffffffff1681526020018373ffffffffffffffffffffffffffffffffffffffff1681526020018281526020019350505050602060405180830381600087803b158015610df257600080fd5b505af1158015610e06573d6000803e3d6000fd5b505050506040513d6020811015610e1c57600080fd5b810190808051906020019092919050505050600192505050919050565b60025481565b6000600160009054906101000a900473ffffffffffffffffffffffffffffffffffffffff16905090565b600080600160009054906101000a900473ffffffffffffffffffffffffffffffffffffffff1690508073ffffffffffffffffffffffffffffffffffffffff166370a08231846040518263ffffffff1660e01b8152600401808273ffffffffffffffffffffffffffffffffffffffff16815260200191505060206040518083038186803b158015610ef857600080fd5b505afa158015610f0c573d6000803e3d6000fd5b505050506040513d6020811015610f2257600080fd5b8101908080519060200190929190505050915050919050565b6000610f7d83836040518060400160405280601e81526020017f536166654d6174683a207375627472616374696f6e206f766572666c6f7700008152506110dd565b905092915050565b600080831415610f985760009050611005565b6000828402905082848281610fa957fe5b0414611000576040517f08c379a00000000000000000000000000000000000000000000000000000000081526004018080602001828103825260218152602001806112646021913960400191505060405180910390fd5b809150505b92915050565b600061104d83836040518060400160405280601a81526020017f536166654d6174683a206469766973696f6e206279207a65726f00000000000081525061119d565b905092915050565b6000808284019050838110156110d3576040517f08c379a000000000000000000000000000000000000000000000000000000000815260040180806020018281038252601b8152602001807f536166654d6174683a206164646974696f6e206f766572666c6f77000000000081525060200191505060405180910390fd5b8091505092915050565b600083831115829061118a576040517f08c379a00000000000000000000000000000000000000000000000000000000081526004018080602001828103825283818151815260200191508051906020019080838360005b8381101561114f578082015181840152602081019050611134565b50505050905090810190601f16801561117c5780820380516001836020036101000a031916815260200191505b509250505060405180910390fd5b5060008385039050809150509392505050565b60008083118290611249576040517f08c379a00000000000000000000000000000000000000000000000000000000081526004018080602001828103825283818151815260200191508051906020019080838360005b8381101561120e5780820151818401526020810190506111f3565b50505050905090810190601f16801561123b5780820380516001836020036101000a031916815260200191505b509250505060405180910390fd5b50600083858161125557fe5b04905080915050939250505056fe536166654d6174683a206d756c7469706c69636174696f6e206f766572666c6f77636c61696d656420616c72656164792c207472792031206d6f6e7468206c61746572a2646970667358221220bb2fa646d9b1e21fcd0a55f3d4b8522a86c515528182e914204c643eb6b0fc4b64736f6c634300060c0033",
  "immutableReferences": {},
  "source": "// SPDX-License-Identifier: MIT\npragma solidity >=0.4.22 <0.9.0;\n\nimport './ARTXToken.sol';\n\n\n\ncontract SharingPool {\n\n  constructor(address _address) public {\n    artxAddress = _address;\n  }\n\n  \n\n  using SafeMath for uint256;\n\n  address public dev = msg.sender;\n  address public artxAddress;\n  uint256 public totalDepositAmount;\n  uint256 public basicPoint10000x = 1850000;\n  \n  \n\n  mapping(address => UserInfo) public userInfo;\n\n  struct UserInfo {\n    uint256 depositAmount;\n    uint256 rewardDiv; \n    uint256 nextClaimTime;\n  }\n\n  function changeDev(address _address) public {\n    require(msg.sender == dev, \"only dev can change Dev\");\n    dev = _address;\n  }\n\n  \n  receive() external payable {\n    // Send ETH to this contract for supporting dev\n    // Thank you for your support !\n  }\n\n  function devDonateithdraw(uint256 _amount) public {\n    // Disclaimer: this function only to withdraw ETH donation in the contract, NOT ARTX.Your ARTX is SAFE\n    require(msg.sender == dev, \"only dev can get donation\");\n    msg.sender.transfer(_amount);\n  }\n  \n\n  function returnARTXAddress() external view returns(address){\n    return artxAddress;\n  }\n\n  function setArtxAddress(address _address) external {\n    require(msg.sender == dev,\"only dev can change\");\n    artxAddress = _address;\n  }\n\n  function  getARTXBalance(address _address) public view returns(uint256){\n    ARTXToken artx = ARTXToken(artxAddress);\n    return artx.balanceOf(_address);\n  }\n\n  function returnContractARTX() public view returns(uint256){\n    return getARTXBalance(address(this));\n  }\n\n  //  function allowance(address _owner,address _spender) external view returns(uint256) {\n  //   ARTXToken artx = ARTXToken(artxAddress);\n  //   artx.allowance(_owner,_spender);\n  // }\n  \n  // This need toe be manually approve\n  // function approveARTX(address _spender , uint256 _amount) external {\n  //   ARTXToken artx = ARTXToken(artxAddress);\n  //   artx.approve(_spender,_amount);\n  // }\n\n  function deposit( uint256 _amount) public returns (bool){\n    // Mannually Approve this address to spend ARTX , then call this function\n    UserInfo storage user = userInfo[msg.sender];\n    ARTXToken artx = ARTXToken(artxAddress);\n    user.depositAmount = user.depositAmount.add(_amount);\n    totalDepositAmount = totalDepositAmount.add(_amount);\n    user.rewardDiv = user.depositAmount.mul(basicPoint10000x).div(totalDepositAmount);\n    // Would div basicPoint100x when claim Reward\n    artx.transferFrom(msg.sender,address(this),_amount);\n    return true;\n  }\n\n   function returnTotalReward () public view returns (uint256) {\n     uint256 _amount = getARTXBalance(address(this)).sub(totalDepositAmount);\n     if (_amount > 0)\n     {\n       return _amount;\n     }\n     else {\n       return 0;\n     }\n    }\n\n\n    function withdraw() public {\n      // Claim before withdraw, or reward will be erased\n      UserInfo storage user = userInfo[msg.sender];\n      ARTXToken artx = ARTXToken(artxAddress);\n      uint256 withdrawAmount = user.depositAmount;\n      user.depositAmount = 0;\n      user.rewardDiv = 0;\n      totalDepositAmount = totalDepositAmount.sub(withdrawAmount);\n      require(withdrawAmount > 0,\"Not enough token to withdraw\");\n      artx.transfer(msg.sender, withdrawAmount);\n    }\n\n    function claim() public {\n      UserInfo storage user = userInfo[msg.sender];\n      ARTXToken artx = ARTXToken(artxAddress);\n      uint256 totalReward = returnTotalReward();\n      uint256 userClaimAmount = totalReward.mul(user.rewardDiv).div(basicPoint10000x);\n      require(userClaimAmount >0,\"Not enough reward to claim \");\n      require(block.timestamp >= user.nextClaimTime, \"claimed already, try 1 month later\");\n      user.nextClaimTime = block.timestamp.add(30 days);\n      artx.transfer(msg.sender,userClaimAmount);\n    }\n  }\n\n\n\n\n  \n",
  "sourcePath": "/Users/ok/Desktop/Projects/artx-sharing-pool/contracts/SharingPool.sol",
  "compiler": {
    "name": "solc",
    "version": "0.6.12+commit.27d51765.Emscripten.clang"
  },
  "schemaVersion": "3.3.4",
  "updatedAt": "2021-04-07T03:09:59.563Z",
  "networkType": "ethereum",
  "devdoc": {
    "kind": "dev",
    "methods": {},
    "version": 1
  },
  "userdoc": {
    "kind": "user",
    "methods": {},
    "version": 1
  }
}