{
  "contractName": "SharingPool",
  "abi": [
    {
      "inputs": [
        {
          "internalType": "address",
          "name": "_address",
          "type": "address"
        }
      ],
      "stateMutability": "nonpayable",
      "type": "constructor"
    },
    {
      "inputs": [],
      "name": "artxAddress",
      "outputs": [
        {
          "internalType": "address",
          "name": "",
          "type": "address"
        }
      ],
      "stateMutability": "view",
      "type": "function",
      "constant": true
    },
    {
      "inputs": [],
      "name": "basicPoint10000x",
      "outputs": [
        {
          "internalType": "uint256",
          "name": "",
          "type": "uint256"
        }
      ],
      "stateMutability": "view",
      "type": "function",
      "constant": true
    },
    {
      "inputs": [],
      "name": "dev",
      "outputs": [
        {
          "internalType": "address",
          "name": "",
          "type": "address"
        }
      ],
      "stateMutability": "view",
      "type": "function",
      "constant": true
    },
    {
      "inputs": [],
      "name": "latestID",
      "outputs": [
        {
          "internalType": "uint256",
          "name": "",
          "type": "uint256"
        }
      ],
      "stateMutability": "view",
      "type": "function",
      "constant": true
    },
    {
      "inputs": [],
      "name": "totalDepositAmount",
      "outputs": [
        {
          "internalType": "uint256",
          "name": "",
          "type": "uint256"
        }
      ],
      "stateMutability": "view",
      "type": "function",
      "constant": true
    },
    {
      "inputs": [
        {
          "internalType": "address",
          "name": "",
          "type": "address"
        }
      ],
      "name": "userInfo",
      "outputs": [
        {
          "internalType": "uint256",
          "name": "depositAmount",
          "type": "uint256"
        },
        {
          "internalType": "uint256",
          "name": "nextClaimTime",
          "type": "uint256"
        },
        {
          "internalType": "uint256",
          "name": "rewardDiv",
          "type": "uint256"
        },
        {
          "internalType": "uint256",
          "name": "userID",
          "type": "uint256"
        }
      ],
      "stateMutability": "view",
      "type": "function",
      "constant": true
    },
    {
      "inputs": [
        {
          "internalType": "uint256",
          "name": "",
          "type": "uint256"
        }
      ],
      "name": "users",
      "outputs": [
        {
          "internalType": "address",
          "name": "",
          "type": "address"
        }
      ],
      "stateMutability": "view",
      "type": "function",
      "constant": true
    },
    {
      "stateMutability": "payable",
      "type": "receive",
      "payable": true
    },
    {
      "inputs": [
        {
          "internalType": "address",
          "name": "_address",
          "type": "address"
        }
      ],
      "name": "changeDev",
      "outputs": [],
      "stateMutability": "nonpayable",
      "type": "function"
    },
    {
      "inputs": [
        {
          "internalType": "uint256",
          "name": "_airdropAmount",
          "type": "uint256"
        }
      ],
      "name": "updateReward",
      "outputs": [],
      "stateMutability": "nonpayable",
      "type": "function"
    },
    {
      "inputs": [
        {
          "internalType": "uint256",
          "name": "_amount",
          "type": "uint256"
        }
      ],
      "name": "devDonateithdraw",
      "outputs": [],
      "stateMutability": "nonpayable",
      "type": "function"
    },
    {
      "inputs": [],
      "name": "returnARTXAddress",
      "outputs": [
        {
          "internalType": "address",
          "name": "",
          "type": "address"
        }
      ],
      "stateMutability": "view",
      "type": "function",
      "constant": true
    },
    {
      "inputs": [
        {
          "internalType": "address",
          "name": "_address",
          "type": "address"
        }
      ],
      "name": "setArtxAddress",
      "outputs": [],
      "stateMutability": "nonpayable",
      "type": "function"
    },
    {
      "inputs": [
        {
          "internalType": "address",
          "name": "_address",
          "type": "address"
        }
      ],
      "name": "getARTXBalance",
      "outputs": [
        {
          "internalType": "uint256",
          "name": "",
          "type": "uint256"
        }
      ],
      "stateMutability": "view",
      "type": "function",
      "constant": true
    },
    {
      "inputs": [],
      "name": "returnContractARTX",
      "outputs": [
        {
          "internalType": "uint256",
          "name": "",
          "type": "uint256"
        }
      ],
      "stateMutability": "view",
      "type": "function",
      "constant": true
    },
    {
      "inputs": [
        {
          "internalType": "uint256",
          "name": "_amount",
          "type": "uint256"
        }
      ],
      "name": "deposit",
      "outputs": [
        {
          "internalType": "bool",
          "name": "",
          "type": "bool"
        }
      ],
      "stateMutability": "nonpayable",
      "type": "function"
    },
    {
      "inputs": [],
      "name": "returnTotalReward",
      "outputs": [
        {
          "internalType": "uint256",
          "name": "",
          "type": "uint256"
        }
      ],
      "stateMutability": "view",
      "type": "function",
      "constant": true
    },
    {
      "inputs": [
        {
          "internalType": "uint256",
          "name": "_amount",
          "type": "uint256"
        }
      ],
      "name": "withdrawAmount",
      "outputs": [],
      "stateMutability": "nonpayable",
      "type": "function"
    }
  ],
  "bytecode": "0x6080604052336000806101000a81548173ffffffffffffffffffffffffffffffffffffffff021916908373ffffffffffffffffffffffffffffffffffffffff160217905550621c3a90600355600060045534801561005c57600080fd5b506040516115763803806115768339818101604052602081101561007f57600080fd5b810190808051906020019092919050505080600160006101000a81548173ffffffffffffffffffffffffffffffffffffffff021916908373ffffffffffffffffffffffffffffffffffffffff16021790555050611495806100e16000396000f3fe6080604052600436106101025760003560e01c8063648c801411610095578063ab9db0b711610064578063ab9db0b71461042d578063b6b55f251461046e578063c5408d50146104bf578063df413255146104ea578063ff45b5531461052b57610109565b8063648c80141461033557806388a8c95c146103605780638cb398de146103b157806391cca3db146103ec57610109565b8063365b98b2116100d1578063365b98b2146102195780634165c5171461027e578063425c8abd146102cf578063584e08c11461030a57610109565b80630562b9f71461010e5780630b5956ad146101495780631959a002146101745780631e863b0a146101ee57610109565b3661010957005b600080fd5b34801561011a57600080fd5b506101476004803603602081101561013157600080fd5b8101908080359060200190929190505050610590565b005b34801561015557600080fd5b5061015e6107d5565b6040518082815260200191505060405180910390f35b34801561018057600080fd5b506101c36004803603602081101561019757600080fd5b81019080803573ffffffffffffffffffffffffffffffffffffffff1690602001909291905050506107e5565b6040518085815260200184815260200183815260200182815260200194505050505060405180910390f35b3480156101fa57600080fd5b50610203610815565b6040518082815260200191505060405180910390f35b34801561022557600080fd5b506102526004803603602081101561023c57600080fd5b810190808035906020019092919050505061081b565b604051808273ffffffffffffffffffffffffffffffffffffffff16815260200191505060405180910390f35b34801561028a57600080fd5b506102cd600480360360208110156102a157600080fd5b81019080803573ffffffffffffffffffffffffffffffffffffffff169060200190929190505050610857565b005b3480156102db57600080fd5b50610308600480360360208110156102f257600080fd5b810190808035906020019092919050505061095c565b005b34801561031657600080fd5b5061031f610b29565b6040518082815260200191505060405180910390f35b34801561034157600080fd5b5061034a610b2f565b6040518082815260200191505060405180910390f35b34801561036c57600080fd5b506103af6004803603602081101561038357600080fd5b81019080803573ffffffffffffffffffffffffffffffffffffffff169060200190929190505050610b53565b005b3480156103bd57600080fd5b506103ea600480360360208110156103d457600080fd5b8101908080359060200190929190505050610c57565b005b3480156103f857600080fd5b50610401610d62565b604051808273ffffffffffffffffffffffffffffffffffffffff16815260200191505060405180910390f35b34801561043957600080fd5b50610442610d86565b604051808273ffffffffffffffffffffffffffffffffffffffff16815260200191505060405180910390f35b34801561047a57600080fd5b506104a76004803603602081101561049157600080fd5b8101908080359060200190929190505050610dac565b60405180821515815260200191505060405180910390f35b3480156104cb57600080fd5b506104d4611014565b6040518082815260200191505060405180910390f35b3480156104f657600080fd5b506104ff61101a565b604051808273ffffffffffffffffffffffffffffffffffffffff16815260200191505060405180910390f35b34801561053757600080fd5b5061057a6004803603602081101561054e57600080fd5b81019080803573ffffffffffffffffffffffffffffffffffffffff169060200190929190505050611044565b6040518082815260200191505060405180910390f35b6000600560003373ffffffffffffffffffffffffffffffffffffffff1673ffffffffffffffffffffffffffffffffffffffff16815260200190815260200160002090506000600160009054906101000a900473ffffffffffffffffffffffffffffffffffffffff16905061061183836000015461111690919063ffffffff16565b826000018190555061062e8360025461111690919063ffffffff16565b60028190555060008260000154111561067b5761066e600254610660600354856000015461116090919063ffffffff16565b6111e690919063ffffffff16565b8260020181905550610686565b600082600201819055505b600082600001541015610701576040517f08c379a000000000000000000000000000000000000000000000000000000000815260040180806020018281038252601c8152602001807f4e6f7420656e6f75676820746f6b656e20746f2077697468647261770000000081525060200191505060405180910390fd5b61071b6228de80836001015461123090919063ffffffff16565b82600101819055508073ffffffffffffffffffffffffffffffffffffffff1663a9059cbb33856040518363ffffffff1660e01b8152600401808373ffffffffffffffffffffffffffffffffffffffff16815260200182815260200192505050602060405180830381600087803b15801561079457600080fd5b505af11580156107a8573d6000803e3d6000fd5b505050506040513d60208110156107be57600080fd5b810190808051906020019092919050505050505050565b60006107e030611044565b905090565b60056020528060005260406000206000915090508060000154908060010154908060020154908060030154905084565b60045481565b6006818154811061082857fe5b906000526020600020016000915054906101000a900473ffffffffffffffffffffffffffffffffffffffff1681565b60008054906101000a900473ffffffffffffffffffffffffffffffffffffffff1673ffffffffffffffffffffffffffffffffffffffff163373ffffffffffffffffffffffffffffffffffffffff1614610918576040517f08c379a00000000000000000000000000000000000000000000000000000000081526004018080602001828103825260138152602001807f6f6e6c79206465762063616e206368616e67650000000000000000000000000081525060200191505060405180910390fd5b80600160006101000a81548173ffffffffffffffffffffffffffffffffffffffff021916908373ffffffffffffffffffffffffffffffffffffffff16021790555050565b60008054906101000a900473ffffffffffffffffffffffffffffffffffffffff1673ffffffffffffffffffffffffffffffffffffffff163373ffffffffffffffffffffffffffffffffffffffff1614610a1d576040517f08c379a00000000000000000000000000000000000000000000000000000000081526004018080602001828103825260198152602001807f6f6e6c79206465762063616e207570646174655265776172640000000000000081525060200191505060405180910390fd5b6000600680549050905060005b81811015610b095760006005600060068481548110610a4557fe5b9060005260206000200160009054906101000a900473ffffffffffffffffffffffffffffffffffffffff1673ffffffffffffffffffffffffffffffffffffffff1673ffffffffffffffffffffffffffffffffffffffff16815260200190815260200160002090506000610ad9600354610acb84600201548861116090919063ffffffff16565b6111e690919063ffffffff16565b9050610af281836000015461123090919063ffffffff16565b826000018190555050508080600101915050610a2a565b50610b1f8260025461123090919063ffffffff16565b6002819055505050565b60035481565b6000610b4e600254610b4030611044565b61111690919063ffffffff16565b905090565b60008054906101000a900473ffffffffffffffffffffffffffffffffffffffff1673ffffffffffffffffffffffffffffffffffffffff163373ffffffffffffffffffffffffffffffffffffffff1614610c14576040517f08c379a00000000000000000000000000000000000000000000000000000000081526004018080602001828103825260178152602001807f6f6e6c79206465762063616e206368616e67652044657600000000000000000081525060200191505060405180910390fd5b806000806101000a81548173ffffffffffffffffffffffffffffffffffffffff021916908373ffffffffffffffffffffffffffffffffffffffff16021790555050565b60008054906101000a900473ffffffffffffffffffffffffffffffffffffffff1673ffffffffffffffffffffffffffffffffffffffff163373ffffffffffffffffffffffffffffffffffffffff1614610d18576040517f08c379a00000000000000000000000000000000000000000000000000000000081526004018080602001828103825260198152602001807f6f6e6c79206465762063616e2067657420646f6e6174696f6e0000000000000081525060200191505060405180910390fd5b3373ffffffffffffffffffffffffffffffffffffffff166108fc829081150290604051600060405180830381858888f19350505050158015610d5e573d6000803e3d6000fd5b5050565b60008054906101000a900473ffffffffffffffffffffffffffffffffffffffff1681565b600160009054906101000a900473ffffffffffffffffffffffffffffffffffffffff1681565b600080600560003373ffffffffffffffffffffffffffffffffffffffff1673ffffffffffffffffffffffffffffffffffffffff1681526020019081526020016000209050600081600001541415610e8a576006339080600181540180825580915050600190039060005260206000200160009091909190916101000a81548173ffffffffffffffffffffffffffffffffffffffff021916908373ffffffffffffffffffffffffffffffffffffffff160217905550610e76600160045461123090919063ffffffff16565b816003018190555080600301546004819055505b6000600160009054906101000a900473ffffffffffffffffffffffffffffffffffffffff169050610ec76228de804261123090919063ffffffff16565b8260010181905550610ee684836000015461123090919063ffffffff16565b8260000181905550610f038460025461123090919063ffffffff16565b600281905550610f36600254610f28600354856000015461116090919063ffffffff16565b6111e690919063ffffffff16565b82600201819055508073ffffffffffffffffffffffffffffffffffffffff166323b872dd3330876040518463ffffffff1660e01b8152600401808473ffffffffffffffffffffffffffffffffffffffff1681526020018373ffffffffffffffffffffffffffffffffffffffff1681526020018281526020019350505050602060405180830381600087803b158015610fcd57600080fd5b505af1158015610fe1573d6000803e3d6000fd5b505050506040513d6020811015610ff757600080fd5b810190808051906020019092919050505050600192505050919050565b60025481565b6000600160009054906101000a900473ffffffffffffffffffffffffffffffffffffffff16905090565b600080600160009054906101000a900473ffffffffffffffffffffffffffffffffffffffff1690508073ffffffffffffffffffffffffffffffffffffffff166370a08231846040518263ffffffff1660e01b8152600401808273ffffffffffffffffffffffffffffffffffffffff16815260200191505060206040518083038186803b1580156110d357600080fd5b505afa1580156110e7573d6000803e3d6000fd5b505050506040513d60208110156110fd57600080fd5b8101908080519060200190929190505050915050919050565b600061115883836040518060400160405280601e81526020017f536166654d6174683a207375627472616374696f6e206f766572666c6f7700008152506112b8565b905092915050565b60008083141561117357600090506111e0565b600082840290508284828161118457fe5b04146111db576040517f08c379a000000000000000000000000000000000000000000000000000000000815260040180806020018281038252602181526020018061143f6021913960400191505060405180910390fd5b809150505b92915050565b600061122883836040518060400160405280601a81526020017f536166654d6174683a206469766973696f6e206279207a65726f000000000000815250611378565b905092915050565b6000808284019050838110156112ae576040517f08c379a000000000000000000000000000000000000000000000000000000000815260040180806020018281038252601b8152602001807f536166654d6174683a206164646974696f6e206f766572666c6f77000000000081525060200191505060405180910390fd5b8091505092915050565b6000838311158290611365576040517f08c379a00000000000000000000000000000000000000000000000000000000081526004018080602001828103825283818151815260200191508051906020019080838360005b8381101561132a57808201518184015260208101905061130f565b50505050905090810190601f1680156113575780820380516001836020036101000a031916815260200191505b509250505060405180910390fd5b5060008385039050809150509392505050565b60008083118290611424576040517f08c379a00000000000000000000000000000000000000000000000000000000081526004018080602001828103825283818151815260200191508051906020019080838360005b838110156113e95780820151818401526020810190506113ce565b50505050905090810190601f1680156114165780820380516001836020036101000a031916815260200191505b509250505060405180910390fd5b50600083858161143057fe5b04905080915050939250505056fe536166654d6174683a206d756c7469706c69636174696f6e206f766572666c6f77a2646970667358221220aa285be76c6a7dc8ef4682cead6688dafe0dedf4ee38e51992e39e2e9dd3e22464736f6c634300060c0033",
  "immutableReferences": {},
  "source": "// SPDX-License-Identifier: MIT\npragma solidity >=0.4.22 <0.9.0;\n\nimport './ARTXToken.sol';\n\n\n\ncontract SharingPool {\n\n  constructor(address _address) public {\n    artxAddress = _address;\n  }\n\n  \n\n  using SafeMath for uint256;\n\n  address public dev = msg.sender;\n  address public artxAddress;\n  uint256 public totalDepositAmount;\n  uint256 public basicPoint10000x = 1850000;\n  uint256 public latestID = 0;\n  \n  \n\n  mapping(address => UserInfo) public userInfo;\n  address[] public users;\n\n  struct UserInfo {\n    uint256 depositAmount;\n    uint256 nextClaimTime;\n    uint256 rewardDiv;\n    uint256 userID;\n\n  }\n\n  function changeDev(address _address) public {\n    require(msg.sender == dev, \"only dev can change Dev\");\n    dev = _address;\n  }\n  \n  function updateReward(uint256 _airdropAmount) public {\n  // This need to execute every month when airdrop sent to the contract\n  require(msg.sender == dev ,\"only dev can updateReward\");\n  uint arrayLength = users.length;\n  for (uint256 i = 0 ; i < arrayLength;i++)\n  { \n  UserInfo storage user = userInfo[users[i]];\n  // Would div basicPoint100x when claim / add reward\n  uint256 addAmount = _airdropAmount.mul(user.rewardDiv).div(basicPoint10000x);\n  user.depositAmount = user.depositAmount.add(addAmount);\n  }\n  //all airdropped ARTX is added to user's depositAmount\n  totalDepositAmount = totalDepositAmount.add(_airdropAmount);\n  \n  }\n\n  \n  receive() external payable {\n    // Send ETH to this contract for supporting dev\n    // Thank you for your support !\n  }\n\n  function devDonateithdraw(uint256 _amount) public {\n    // Disclaimer: this function only to withdraw ETH donation in the contract, NOT ARTX.Your ARTX is SAFE\n    require(msg.sender == dev, \"only dev can get donation\");\n    msg.sender.transfer(_amount);\n  }\n  \n\n  function returnARTXAddress() external view returns(address){\n    return artxAddress;\n  }\n\n  function setArtxAddress(address _address) external {\n    require(msg.sender == dev,\"only dev can change\");\n    artxAddress = _address;\n  }\n\n  function  getARTXBalance(address _address) public view returns(uint256){\n    ARTXToken artx = ARTXToken(artxAddress);\n    return artx.balanceOf(_address);\n  }\n\n  function returnContractARTX() public view returns(uint256){\n    return getARTXBalance(address(this));\n  }\n\n \n  // This need toe be manually approve in ARTX Contract \n  // function approveARTX(address _spender , uint256 _amount) external {\n  //   ARTXToken artx = ARTXToken(artxAddress);\n  //   artx.approve(_spender,_amount);\n  // }\n\n  function deposit( uint256 _amount) public returns (bool){\n    // Mannually Approve this address to spend ARTX , then call this function\n    UserInfo storage user = userInfo[msg.sender];\n    if (user.depositAmount == 0) {\n    users.push(msg.sender);\n    user.userID = latestID.add(1);\n    latestID = user.userID;\n    }\n    ARTXToken artx = ARTXToken(artxAddress);\n    user.nextClaimTime = block.timestamp.add(31 days);\n    user.depositAmount = user.depositAmount.add(_amount);\n    totalDepositAmount = totalDepositAmount.add(_amount);\n    user.rewardDiv = user.depositAmount.mul(basicPoint10000x).div(totalDepositAmount);\n    \n    artx.transferFrom(msg.sender,address(this),_amount);\n    return true;\n  }\n\n   function returnTotalReward () public view returns (uint256) {\n    return getARTXBalance(address(this)).sub(totalDepositAmount);\n   }\n   \n   function remove(uint256 index) internal {\n    delete users[index];\n   }\n\n    function withdrawAmount(uint256 _amount) public {\n      // Right now you can claim with this function,or simply withdraw\n      UserInfo storage user = userInfo[msg.sender];\n      ARTXToken artx = ARTXToken(artxAddress);\n      user.depositAmount = user.depositAmount.sub(_amount);\n      totalDepositAmount = totalDepositAmount.sub(_amount);\n      //recalucate the rewardDiv to avoid withdraw user still have the same amount of airdrop amount\n      if (user.depositAmount > 0)\n      {\n        user.rewardDiv = user.depositAmount.mul(basicPoint10000x).div(totalDepositAmount);\n      }\n      else {\n        user.rewardDiv = 0;\n      }\n      require(user.depositAmount >= 0,\"Not enough token to withdraw\");\n     \n      // Add timelock when deploy in mainnet , right now comment out for testing purpose\n      // !!! PLEASE UNCOMMENT BELOW CODE BEFORE DEPLOY TO MAINNET  \n      // require(user.nextClaimTime > block.timestamp, \"Too early to withdraw,wait 31 days after deposit or claim\");\n      user.nextClaimTime = user.nextClaimTime.add(31 days);\n      // if (user.depositAmount == 0)\n      // {\n      // remove(user.userID);\n      // }\n      artx.transfer(msg.sender, _amount);\n    }\n     \n   \n   \n}\n  \n\n\n",
  "sourcePath": "/Users/ok/Desktop/Projects/artx-sharing-pool/contracts/SharingPool.sol",
  "compiler": {
    "name": "solc",
    "version": "0.6.12+commit.27d51765.Emscripten.clang"
  },
  "schemaVersion": "3.3.4",
  "updatedAt": "2021-04-12T02:56:22.400Z",
  "networkType": "ethereum",
  "devdoc": {
    "kind": "dev",
    "methods": {},
    "version": 1
  },
  "userdoc": {
    "kind": "user",
    "methods": {},
    "version": 1
  }
}