{
  "contractName": "SharingPool",
  "abi": [
    {
      "inputs": [
        {
          "internalType": "address",
          "name": "_address",
          "type": "address"
        }
      ],
      "stateMutability": "nonpayable",
      "type": "constructor"
    },
    {
      "inputs": [],
      "name": "artxAddress",
      "outputs": [
        {
          "internalType": "address",
          "name": "",
          "type": "address"
        }
      ],
      "stateMutability": "view",
      "type": "function",
      "constant": true
    },
    {
      "inputs": [],
      "name": "basicPoint10000x",
      "outputs": [
        {
          "internalType": "uint256",
          "name": "",
          "type": "uint256"
        }
      ],
      "stateMutability": "view",
      "type": "function",
      "constant": true
    },
    {
      "inputs": [],
      "name": "dev",
      "outputs": [
        {
          "internalType": "address",
          "name": "",
          "type": "address"
        }
      ],
      "stateMutability": "view",
      "type": "function",
      "constant": true
    },
    {
      "inputs": [],
      "name": "totalDepositAmount",
      "outputs": [
        {
          "internalType": "uint256",
          "name": "",
          "type": "uint256"
        }
      ],
      "stateMutability": "view",
      "type": "function",
      "constant": true
    },
    {
      "inputs": [
        {
          "internalType": "address",
          "name": "",
          "type": "address"
        }
      ],
      "name": "userInfo",
      "outputs": [
        {
          "internalType": "uint256",
          "name": "depositAmount",
          "type": "uint256"
        },
        {
          "internalType": "uint256",
          "name": "rewardDiv",
          "type": "uint256"
        },
        {
          "internalType": "uint256",
          "name": "claimedReward",
          "type": "uint256"
        }
      ],
      "stateMutability": "view",
      "type": "function",
      "constant": true
    },
    {
      "stateMutability": "payable",
      "type": "receive",
      "payable": true
    },
    {
      "inputs": [
        {
          "internalType": "uint256",
          "name": "_amount",
          "type": "uint256"
        }
      ],
      "name": "devDonateithdraw",
      "outputs": [],
      "stateMutability": "nonpayable",
      "type": "function"
    },
    {
      "inputs": [],
      "name": "returnARTXAddress",
      "outputs": [
        {
          "internalType": "address",
          "name": "",
          "type": "address"
        }
      ],
      "stateMutability": "view",
      "type": "function",
      "constant": true
    },
    {
      "inputs": [
        {
          "internalType": "address",
          "name": "_address",
          "type": "address"
        }
      ],
      "name": "setArtxAddress",
      "outputs": [],
      "stateMutability": "nonpayable",
      "type": "function"
    },
    {
      "inputs": [
        {
          "internalType": "address",
          "name": "_address",
          "type": "address"
        }
      ],
      "name": "getARTXBalance",
      "outputs": [
        {
          "internalType": "uint256",
          "name": "",
          "type": "uint256"
        }
      ],
      "stateMutability": "view",
      "type": "function",
      "constant": true
    },
    {
      "inputs": [],
      "name": "returnContractARTX",
      "outputs": [
        {
          "internalType": "uint256",
          "name": "",
          "type": "uint256"
        }
      ],
      "stateMutability": "view",
      "type": "function",
      "constant": true
    },
    {
      "inputs": [
        {
          "internalType": "address",
          "name": "_owner",
          "type": "address"
        },
        {
          "internalType": "address",
          "name": "_spender",
          "type": "address"
        }
      ],
      "name": "allowance",
      "outputs": [
        {
          "internalType": "uint256",
          "name": "",
          "type": "uint256"
        }
      ],
      "stateMutability": "view",
      "type": "function",
      "constant": true
    },
    {
      "inputs": [
        {
          "internalType": "uint256",
          "name": "_amount",
          "type": "uint256"
        }
      ],
      "name": "deposit",
      "outputs": [
        {
          "internalType": "bool",
          "name": "",
          "type": "bool"
        }
      ],
      "stateMutability": "nonpayable",
      "type": "function"
    },
    {
      "inputs": [],
      "name": "returnTotalReward",
      "outputs": [
        {
          "internalType": "uint256",
          "name": "",
          "type": "uint256"
        }
      ],
      "stateMutability": "view",
      "type": "function",
      "constant": true
    }
  ],
  "bytecode": "0x6080604052336000806101000a81548173ffffffffffffffffffffffffffffffffffffffff021916908373ffffffffffffffffffffffffffffffffffffffff160217905550621c3a9060035534801561005757600080fd5b50604051610f36380380610f368339818101604052602081101561007a57600080fd5b810190808051906020019092919050505080600160006101000a81548173ffffffffffffffffffffffffffffffffffffffff021916908373ffffffffffffffffffffffffffffffffffffffff16021790555050610e5a806100dc6000396000f3fe6080604052600436106100c65760003560e01c806391cca3db1161007f578063c5408d5011610059578063c5408d5014610325578063dd62ed3e14610350578063df413255146103d5578063ff45b55314610416576100cd565b806391cca3db14610252578063ab9db0b714610293578063b6b55f25146102d4576100cd565b80630b5956ad146100d25780631959a002146100fd5780634165c51714610170578063584e08c1146101c1578063648c8014146101ec5780638cb398de14610217576100cd565b366100cd57005b600080fd5b3480156100de57600080fd5b506100e761047b565b6040518082815260200191505060405180910390f35b34801561010957600080fd5b5061014c6004803603602081101561012057600080fd5b81019080803573ffffffffffffffffffffffffffffffffffffffff16906020019092919050505061048b565b60405180848152602001838152602001828152602001935050505060405180910390f35b34801561017c57600080fd5b506101bf6004803603602081101561019357600080fd5b81019080803573ffffffffffffffffffffffffffffffffffffffff1690602001909291905050506104b5565b005b3480156101cd57600080fd5b506101d66105ba565b6040518082815260200191505060405180910390f35b3480156101f857600080fd5b506102016105c0565b6040518082815260200191505060405180910390f35b34801561022357600080fd5b506102506004803603602081101561023a57600080fd5b81019080803590602001909291905050506105e4565b005b34801561025e57600080fd5b506102676106ef565b604051808273ffffffffffffffffffffffffffffffffffffffff16815260200191505060405180910390f35b34801561029f57600080fd5b506102a8610713565b604051808273ffffffffffffffffffffffffffffffffffffffff16815260200191505060405180910390f35b3480156102e057600080fd5b5061030d600480360360208110156102f757600080fd5b8101908080359060200190929190505050610739565b60405180821515815260200191505060405180910390f35b34801561033157600080fd5b5061033a6108e9565b6040518082815260200191505060405180910390f35b34801561035c57600080fd5b506103bf6004803603604081101561037357600080fd5b81019080803573ffffffffffffffffffffffffffffffffffffffff169060200190929190803573ffffffffffffffffffffffffffffffffffffffff1690602001909291905050506108ef565b6040518082815260200191505060405180910390f35b3480156103e157600080fd5b506103ea6109df565b604051808273ffffffffffffffffffffffffffffffffffffffff16815260200191505060405180910390f35b34801561042257600080fd5b506104656004803603602081101561043957600080fd5b81019080803573ffffffffffffffffffffffffffffffffffffffff169060200190929190505050610a09565b6040518082815260200191505060405180910390f35b600061048630610a09565b905090565b60046020528060005260406000206000915090508060000154908060010154908060020154905083565b60008054906101000a900473ffffffffffffffffffffffffffffffffffffffff1673ffffffffffffffffffffffffffffffffffffffff163373ffffffffffffffffffffffffffffffffffffffff1614610576576040517f08c379a00000000000000000000000000000000000000000000000000000000081526004018080602001828103825260138152602001807f6f6e6c79206465762063616e206361686e67650000000000000000000000000081525060200191505060405180910390fd5b80600160006101000a81548173ffffffffffffffffffffffffffffffffffffffff021916908373ffffffffffffffffffffffffffffffffffffffff16021790555050565b60035481565b60006105df6002546105d130610a09565b610adb90919063ffffffff16565b905090565b60008054906101000a900473ffffffffffffffffffffffffffffffffffffffff1673ffffffffffffffffffffffffffffffffffffffff163373ffffffffffffffffffffffffffffffffffffffff16146106a5576040517f08c379a00000000000000000000000000000000000000000000000000000000081526004018080602001828103825260198152602001807f6f6e6c79206465762063616e2067657420646f6e6174696f6e0000000000000081525060200191505060405180910390fd5b3373ffffffffffffffffffffffffffffffffffffffff166108fc829081150290604051600060405180830381858888f193505050501580156106eb573d6000803e3d6000fd5b5050565b60008054906101000a900473ffffffffffffffffffffffffffffffffffffffff1681565b600160009054906101000a900473ffffffffffffffffffffffffffffffffffffffff1681565b600080600460003373ffffffffffffffffffffffffffffffffffffffff1673ffffffffffffffffffffffffffffffffffffffff16815260200190815260200160002090506000600160009054906101000a900473ffffffffffffffffffffffffffffffffffffffff1690506107bb848360000154610b2590919063ffffffff16565b82600001819055506107d884600254610b2590919063ffffffff16565b60028190555061080b6002546107fd6003548560000154610bad90919063ffffffff16565b610c3390919063ffffffff16565b82600101819055508073ffffffffffffffffffffffffffffffffffffffff166323b872dd3330876040518463ffffffff1660e01b8152600401808473ffffffffffffffffffffffffffffffffffffffff1681526020018373ffffffffffffffffffffffffffffffffffffffff1681526020018281526020019350505050602060405180830381600087803b1580156108a257600080fd5b505af11580156108b6573d6000803e3d6000fd5b505050506040513d60208110156108cc57600080fd5b810190808051906020019092919050505050600192505050919050565b60025481565b600080600160009054906101000a900473ffffffffffffffffffffffffffffffffffffffff1690508073ffffffffffffffffffffffffffffffffffffffff1663dd62ed3e85856040518363ffffffff1660e01b8152600401808373ffffffffffffffffffffffffffffffffffffffff1681526020018273ffffffffffffffffffffffffffffffffffffffff1681526020019250505060206040518083038186803b15801561099c57600080fd5b505afa1580156109b0573d6000803e3d6000fd5b505050506040513d60208110156109c657600080fd5b8101908080519060200190929190505050505092915050565b6000600160009054906101000a900473ffffffffffffffffffffffffffffffffffffffff16905090565b600080600160009054906101000a900473ffffffffffffffffffffffffffffffffffffffff1690508073ffffffffffffffffffffffffffffffffffffffff166370a08231846040518263ffffffff1660e01b8152600401808273ffffffffffffffffffffffffffffffffffffffff16815260200191505060206040518083038186803b158015610a9857600080fd5b505afa158015610aac573d6000803e3d6000fd5b505050506040513d6020811015610ac257600080fd5b8101908080519060200190929190505050915050919050565b6000610b1d83836040518060400160405280601e81526020017f536166654d6174683a207375627472616374696f6e206f766572666c6f770000815250610c7d565b905092915050565b600080828401905083811015610ba3576040517f08c379a000000000000000000000000000000000000000000000000000000000815260040180806020018281038252601b8152602001807f536166654d6174683a206164646974696f6e206f766572666c6f77000000000081525060200191505060405180910390fd5b8091505092915050565b600080831415610bc05760009050610c2d565b6000828402905082848281610bd157fe5b0414610c28576040517f08c379a0000000000000000000000000000000000000000000000000000000008152600401808060200182810382526021815260200180610e046021913960400191505060405180910390fd5b809150505b92915050565b6000610c7583836040518060400160405280601a81526020017f536166654d6174683a206469766973696f6e206279207a65726f000000000000815250610d3d565b905092915050565b6000838311158290610d2a576040517f08c379a00000000000000000000000000000000000000000000000000000000081526004018080602001828103825283818151815260200191508051906020019080838360005b83811015610cef578082015181840152602081019050610cd4565b50505050905090810190601f168015610d1c5780820380516001836020036101000a031916815260200191505b509250505060405180910390fd5b5060008385039050809150509392505050565b60008083118290610de9576040517f08c379a00000000000000000000000000000000000000000000000000000000081526004018080602001828103825283818151815260200191508051906020019080838360005b83811015610dae578082015181840152602081019050610d93565b50505050905090810190601f168015610ddb5780820380516001836020036101000a031916815260200191505b509250505060405180910390fd5b506000838581610df557fe5b04905080915050939250505056fe536166654d6174683a206d756c7469706c69636174696f6e206f766572666c6f77a2646970667358221220a970297f1fc9c2732159c866b93a47a0415b5ac000cf9d59a115b279d1b4162f64736f6c634300060c0033",
  "immutableReferences": {},
  "source": "// SPDX-License-Identifier: MIT\npragma solidity >=0.4.22 <0.9.0;\n\nimport './ARTXToken.sol';\n\n\n\ncontract SharingPool {\n\n  constructor(address _address) public {\n    artxAddress = _address;\n  }\n\n  \n\n  using SafeMath for uint256;\n\n  address public dev = msg.sender;\n  address public artxAddress;\n  uint256 public totalDepositAmount;\n  uint256 public basicPoint10000x = 1850000;\n  \n  \n\n  mapping(address => UserInfo) public userInfo;\n\n  struct UserInfo {\n    uint256 depositAmount;\n    uint256 rewardDiv; \n    uint256 claimedReward;\n  }\n\n  \n  receive() external payable {\n    // Send ETH to this contract for supporting dev\n    // Thank you for your support !\n  }\n\n  function devDonateithdraw(uint256 _amount) public {\n    // Disclaimer: this function only to withdraw ETH donation in the contract, NOT ARTX.Your ARTX is SAFE\n    require(msg.sender == dev, \"only dev can get donation\");\n    msg.sender.transfer(_amount);\n  }\n  \n\n  function returnARTXAddress() external view returns(address){\n    return artxAddress;\n  }\n\n  function setArtxAddress(address _address) external {\n    require(msg.sender == dev,\"only dev can cahnge\");\n    artxAddress = _address;\n  }\n\n  function  getARTXBalance(address _address) public view returns(uint256){\n    ARTXToken artx = ARTXToken(artxAddress);\n    return artx.balanceOf(_address);\n  }\n\n  function returnContractARTX() public view returns(uint256){\n    return getARTXBalance(address(this));\n  }\n\n   function allowance(address _owner,address _spender) external view returns(uint256) {\n    ARTXToken artx = ARTXToken(artxAddress);\n    artx.allowance(_owner,_spender);\n  }\n  \n  // This need toe be manually approve\n  // function approveARTX(address _spender , uint256 _amount) external {\n  //   ARTXToken artx = ARTXToken(artxAddress);\n  //   artx.approve(_spender,_amount);\n  // }\n\n  function deposit( uint256 _amount) public returns (bool){\n    // Mannually Approve this address to spend ARTX , then call this function\n    UserInfo storage user = userInfo[msg.sender];\n    ARTXToken artx = ARTXToken(artxAddress);\n    user.depositAmount = user.depositAmount.add(_amount);\n    totalDepositAmount = totalDepositAmount.add(_amount);\n    user.rewardDiv = user.depositAmount.mul(basicPoint10000x).div(totalDepositAmount);\n    // Would div basicPoint100x when claim Reward\n    artx.transferFrom(msg.sender,address(this),_amount);\n    return true;\n  }\n\n   function returnTotalReward () public view returns (uint256) {\n     return getARTXBalance(address(this)).sub(totalDepositAmount);\n    }\n\n  \n\n \n\n  \n\n\n \n\n    \n  }\n\n\n\n\n  \n",
  "sourcePath": "/Users/ok/Desktop/Projects/artx-sharing-pool/contracts/SharingPool.sol",
  "compiler": {
    "name": "solc",
    "version": "0.6.12+commit.27d51765.Emscripten.clang"
  },
  "schemaVersion": "3.3.4",
  "updatedAt": "2021-04-05T09:05:38.418Z",
  "networkType": "ethereum",
  "devdoc": {
    "kind": "dev",
    "methods": {},
    "version": 1
  },
  "userdoc": {
    "kind": "user",
    "methods": {},
    "version": 1
  }
}