{
  "contractName": "SharingPool",
  "abi": [
    {
      "inputs": [
        {
          "internalType": "address",
          "name": "_address",
          "type": "address"
        }
      ],
      "stateMutability": "nonpayable",
      "type": "constructor"
    },
    {
      "inputs": [],
      "name": "artxAddress",
      "outputs": [
        {
          "internalType": "address",
          "name": "",
          "type": "address"
        }
      ],
      "stateMutability": "view",
      "type": "function",
      "constant": true
    },
    {
      "inputs": [],
      "name": "basicPoint10000x",
      "outputs": [
        {
          "internalType": "uint256",
          "name": "",
          "type": "uint256"
        }
      ],
      "stateMutability": "view",
      "type": "function",
      "constant": true
    },
    {
      "inputs": [],
      "name": "dev",
      "outputs": [
        {
          "internalType": "address",
          "name": "",
          "type": "address"
        }
      ],
      "stateMutability": "view",
      "type": "function",
      "constant": true
    },
    {
      "inputs": [],
      "name": "manualTotalDepositAmount",
      "outputs": [
        {
          "internalType": "uint256",
          "name": "",
          "type": "uint256"
        }
      ],
      "stateMutability": "view",
      "type": "function",
      "constant": true
    },
    {
      "inputs": [],
      "name": "totalDepositAmount",
      "outputs": [
        {
          "internalType": "uint256",
          "name": "",
          "type": "uint256"
        }
      ],
      "stateMutability": "view",
      "type": "function",
      "constant": true
    },
    {
      "inputs": [
        {
          "internalType": "address",
          "name": "",
          "type": "address"
        }
      ],
      "name": "userInfo",
      "outputs": [
        {
          "internalType": "uint256",
          "name": "depositAmount",
          "type": "uint256"
        },
        {
          "internalType": "uint256",
          "name": "rewardDiv",
          "type": "uint256"
        },
        {
          "internalType": "uint256",
          "name": "nextClaimTime",
          "type": "uint256"
        }
      ],
      "stateMutability": "view",
      "type": "function",
      "constant": true
    },
    {
      "stateMutability": "payable",
      "type": "receive",
      "payable": true
    },
    {
      "inputs": [
        {
          "internalType": "address",
          "name": "_address",
          "type": "address"
        }
      ],
      "name": "changeDev",
      "outputs": [],
      "stateMutability": "nonpayable",
      "type": "function"
    },
    {
      "inputs": [
        {
          "internalType": "uint256",
          "name": "_amount",
          "type": "uint256"
        }
      ],
      "name": "devDonateithdraw",
      "outputs": [],
      "stateMutability": "nonpayable",
      "type": "function"
    },
    {
      "inputs": [],
      "name": "returnARTXAddress",
      "outputs": [
        {
          "internalType": "address",
          "name": "",
          "type": "address"
        }
      ],
      "stateMutability": "view",
      "type": "function",
      "constant": true
    },
    {
      "inputs": [
        {
          "internalType": "address",
          "name": "_address",
          "type": "address"
        }
      ],
      "name": "setArtxAddress",
      "outputs": [],
      "stateMutability": "nonpayable",
      "type": "function"
    },
    {
      "inputs": [
        {
          "internalType": "address",
          "name": "_address",
          "type": "address"
        }
      ],
      "name": "getARTXBalance",
      "outputs": [
        {
          "internalType": "uint256",
          "name": "",
          "type": "uint256"
        }
      ],
      "stateMutability": "view",
      "type": "function",
      "constant": true
    },
    {
      "inputs": [],
      "name": "returnContractARTX",
      "outputs": [
        {
          "internalType": "uint256",
          "name": "",
          "type": "uint256"
        }
      ],
      "stateMutability": "view",
      "type": "function",
      "constant": true
    },
    {
      "inputs": [
        {
          "internalType": "uint256",
          "name": "_amount",
          "type": "uint256"
        }
      ],
      "name": "deposit",
      "outputs": [
        {
          "internalType": "bool",
          "name": "",
          "type": "bool"
        }
      ],
      "stateMutability": "nonpayable",
      "type": "function"
    },
    {
      "inputs": [],
      "name": "returnTotalReward",
      "outputs": [
        {
          "internalType": "uint256",
          "name": "",
          "type": "uint256"
        }
      ],
      "stateMutability": "view",
      "type": "function",
      "constant": true
    },
    {
      "inputs": [
        {
          "internalType": "uint256",
          "name": "_amount",
          "type": "uint256"
        }
      ],
      "name": "adjustManualTotalDepositAmount",
      "outputs": [],
      "stateMutability": "nonpayable",
      "type": "function"
    },
    {
      "inputs": [],
      "name": "withdraw",
      "outputs": [],
      "stateMutability": "nonpayable",
      "type": "function"
    },
    {
      "inputs": [],
      "name": "claim",
      "outputs": [],
      "stateMutability": "nonpayable",
      "type": "function"
    }
  ],
  "bytecode": "0x6080604052336000806101000a81548173ffffffffffffffffffffffffffffffffffffffff021916908373ffffffffffffffffffffffffffffffffffffffff160217905550621c3a9060035534801561005757600080fd5b506040516114ea3803806114ea8339818101604052602081101561007a57600080fd5b810190808051906020019092919050505080600160006101000a81548173ffffffffffffffffffffffffffffffffffffffff021916908373ffffffffffffffffffffffffffffffffffffffff1602179055505061140e806100dc6000396000f3fe6080604052600436106101025760003560e01c80638cb398de11610095578063b6b55f2511610064578063b6b55f25146103ca578063c5408d501461041b578063df41325514610446578063ec6d2bfa14610487578063ff45b553146104b257610109565b80638cb398de146102d257806391cca3db1461030d578063a371a5ba1461034e578063ab9db0b71461038957610109565b80634e71d92d116100d15780634e71d92d14610214578063584e08c11461022b578063648c80141461025657806388a8c95c1461028157610109565b80630b5956ad1461010e5780631959a002146101395780633ccfd60b146101ac5780634165c517146101c357610109565b3661010957005b600080fd5b34801561011a57600080fd5b50610123610517565b6040518082815260200191505060405180910390f35b34801561014557600080fd5b506101886004803603602081101561015c57600080fd5b81019080803573ffffffffffffffffffffffffffffffffffffffff169060200190929190505050610527565b60405180848152602001838152602001828152602001935050505060405180910390f35b3480156101b857600080fd5b506101c1610551565b005b3480156101cf57600080fd5b50610212600480360360208110156101e657600080fd5b81019080803573ffffffffffffffffffffffffffffffffffffffff16906020019092919050505061071b565b005b34801561022057600080fd5b50610229610820565b005b34801561023757600080fd5b50610240610a69565b6040518082815260200191505060405180910390f35b34801561026257600080fd5b5061026b610a6f565b6040518082815260200191505060405180910390f35b34801561028d57600080fd5b506102d0600480360360208110156102a457600080fd5b81019080803573ffffffffffffffffffffffffffffffffffffffff169060200190929190505050610a79565b005b3480156102de57600080fd5b5061030b600480360360208110156102f557600080fd5b8101908080359060200190929190505050610b7d565b005b34801561031957600080fd5b50610322610c88565b604051808273ffffffffffffffffffffffffffffffffffffffff16815260200191505060405180910390f35b34801561035a57600080fd5b506103876004803603602081101561037157600080fd5b8101908080359060200190929190505050610cac565b005b34801561039557600080fd5b5061039e610d6e565b604051808273ffffffffffffffffffffffffffffffffffffffff16815260200191505060405180910390f35b3480156103d657600080fd5b50610403600480360360208110156103ed57600080fd5b8101908080359060200190929190505050610d94565b60405180821515815260200191505060405180910390f35b34801561042757600080fd5b50610430610f44565b6040518082815260200191505060405180910390f35b34801561045257600080fd5b5061045b610f4a565b604051808273ffffffffffffffffffffffffffffffffffffffff16815260200191505060405180910390f35b34801561049357600080fd5b5061049c610f74565b6040518082815260200191505060405180910390f35b3480156104be57600080fd5b50610501600480360360208110156104d557600080fd5b81019080803573ffffffffffffffffffffffffffffffffffffffff169060200190929190505050610f7a565b6040518082815260200191505060405180910390f35b600061052230610f7a565b905090565b60056020528060005260406000206000915090508060000154908060010154908060020154905083565b6000600560003373ffffffffffffffffffffffffffffffffffffffff1673ffffffffffffffffffffffffffffffffffffffff16815260200190815260200160002090506000600160009054906101000a900473ffffffffffffffffffffffffffffffffffffffff16905060008260000154905060008360000181905550600083600101819055506105ed8160025461104c90919063ffffffff16565b60028190555060008111610669576040517f08c379a000000000000000000000000000000000000000000000000000000000815260040180806020018281038252601c8152602001807f4e6f7420656e6f75676820746f6b656e20746f2077697468647261770000000081525060200191505060405180910390fd5b8173ffffffffffffffffffffffffffffffffffffffff1663a9059cbb33836040518363ffffffff1660e01b8152600401808373ffffffffffffffffffffffffffffffffffffffff16815260200182815260200192505050602060405180830381600087803b1580156106da57600080fd5b505af11580156106ee573d6000803e3d6000fd5b505050506040513d602081101561070457600080fd5b810190808051906020019092919050505050505050565b60008054906101000a900473ffffffffffffffffffffffffffffffffffffffff1673ffffffffffffffffffffffffffffffffffffffff163373ffffffffffffffffffffffffffffffffffffffff16146107dc576040517f08c379a00000000000000000000000000000000000000000000000000000000081526004018080602001828103825260138152602001807f6f6e6c79206465762063616e206368616e67650000000000000000000000000081525060200191505060405180910390fd5b80600160006101000a81548173ffffffffffffffffffffffffffffffffffffffff021916908373ffffffffffffffffffffffffffffffffffffffff16021790555050565b6000600560003373ffffffffffffffffffffffffffffffffffffffff1673ffffffffffffffffffffffffffffffffffffffff16815260200190815260200160002090506000600160009054906101000a900473ffffffffffffffffffffffffffffffffffffffff1690506000610894610a6f565b905060006108c36003546108b586600101548561109690919063ffffffff16565b61111c90919063ffffffff16565b90506000811161093b576040517f08c379a000000000000000000000000000000000000000000000000000000000815260040180806020018281038252601b8152602001807f4e6f7420656e6f7567682072657761726420746f20636c61696d20000000000081525060200191505060405180910390fd5b8360020154421015610998576040517f08c379a00000000000000000000000000000000000000000000000000000000081526004018080602001828103825260228152602001806113966022913960400191505060405180910390fd5b6109ae62278d004261116690919063ffffffff16565b84600201819055508273ffffffffffffffffffffffffffffffffffffffff1663a9059cbb33836040518363ffffffff1660e01b8152600401808373ffffffffffffffffffffffffffffffffffffffff16815260200182815260200192505050602060405180830381600087803b158015610a2757600080fd5b505af1158015610a3b573d6000803e3d6000fd5b505050506040513d6020811015610a5157600080fd5b81019080805190602001909291905050505050505050565b60035481565b6000600454905090565b60008054906101000a900473ffffffffffffffffffffffffffffffffffffffff1673ffffffffffffffffffffffffffffffffffffffff163373ffffffffffffffffffffffffffffffffffffffff1614610b3a576040517f08c379a00000000000000000000000000000000000000000000000000000000081526004018080602001828103825260178152602001807f6f6e6c79206465762063616e206368616e67652044657600000000000000000081525060200191505060405180910390fd5b806000806101000a81548173ffffffffffffffffffffffffffffffffffffffff021916908373ffffffffffffffffffffffffffffffffffffffff16021790555050565b60008054906101000a900473ffffffffffffffffffffffffffffffffffffffff1673ffffffffffffffffffffffffffffffffffffffff163373ffffffffffffffffffffffffffffffffffffffff1614610c3e576040517f08c379a00000000000000000000000000000000000000000000000000000000081526004018080602001828103825260198152602001807f6f6e6c79206465762063616e2067657420646f6e6174696f6e0000000000000081525060200191505060405180910390fd5b3373ffffffffffffffffffffffffffffffffffffffff166108fc829081150290604051600060405180830381858888f19350505050158015610c84573d6000803e3d6000fd5b5050565b60008054906101000a900473ffffffffffffffffffffffffffffffffffffffff1681565b60008054906101000a900473ffffffffffffffffffffffffffffffffffffffff1673ffffffffffffffffffffffffffffffffffffffff163373ffffffffffffffffffffffffffffffffffffffff1614610d50576040517f08c379a00000000000000000000000000000000000000000000000000000000081526004018080602001828103825260218152602001806113b86021913960400191505060405180910390fd5b610d658160045461116690919063ffffffff16565b60048190555050565b600160009054906101000a900473ffffffffffffffffffffffffffffffffffffffff1681565b600080600560003373ffffffffffffffffffffffffffffffffffffffff1673ffffffffffffffffffffffffffffffffffffffff16815260200190815260200160002090506000600160009054906101000a900473ffffffffffffffffffffffffffffffffffffffff169050610e1684836000015461116690919063ffffffff16565b8260000181905550610e338460025461116690919063ffffffff16565b600281905550610e66600254610e58600354856000015461109690919063ffffffff16565b61111c90919063ffffffff16565b82600101819055508073ffffffffffffffffffffffffffffffffffffffff166323b872dd3330876040518463ffffffff1660e01b8152600401808473ffffffffffffffffffffffffffffffffffffffff1681526020018373ffffffffffffffffffffffffffffffffffffffff1681526020018281526020019350505050602060405180830381600087803b158015610efd57600080fd5b505af1158015610f11573d6000803e3d6000fd5b505050506040513d6020811015610f2757600080fd5b810190808051906020019092919050505050600192505050919050565b60025481565b6000600160009054906101000a900473ffffffffffffffffffffffffffffffffffffffff16905090565b60045481565b600080600160009054906101000a900473ffffffffffffffffffffffffffffffffffffffff1690508073ffffffffffffffffffffffffffffffffffffffff166370a08231846040518263ffffffff1660e01b8152600401808273ffffffffffffffffffffffffffffffffffffffff16815260200191505060206040518083038186803b15801561100957600080fd5b505afa15801561101d573d6000803e3d6000fd5b505050506040513d602081101561103357600080fd5b8101908080519060200190929190505050915050919050565b600061108e83836040518060400160405280601e81526020017f536166654d6174683a207375627472616374696f6e206f766572666c6f7700008152506111ee565b905092915050565b6000808314156110a95760009050611116565b60008284029050828482816110ba57fe5b0414611111576040517f08c379a00000000000000000000000000000000000000000000000000000000081526004018080602001828103825260218152602001806113756021913960400191505060405180910390fd5b809150505b92915050565b600061115e83836040518060400160405280601a81526020017f536166654d6174683a206469766973696f6e206279207a65726f0000000000008152506112ae565b905092915050565b6000808284019050838110156111e4576040517f08c379a000000000000000000000000000000000000000000000000000000000815260040180806020018281038252601b8152602001807f536166654d6174683a206164646974696f6e206f766572666c6f77000000000081525060200191505060405180910390fd5b8091505092915050565b600083831115829061129b576040517f08c379a00000000000000000000000000000000000000000000000000000000081526004018080602001828103825283818151815260200191508051906020019080838360005b83811015611260578082015181840152602081019050611245565b50505050905090810190601f16801561128d5780820380516001836020036101000a031916815260200191505b509250505060405180910390fd5b5060008385039050809150509392505050565b6000808311829061135a576040517f08c379a00000000000000000000000000000000000000000000000000000000081526004018080602001828103825283818151815260200191508051906020019080838360005b8381101561131f578082015181840152602081019050611304565b50505050905090810190601f16801561134c5780820380516001836020036101000a031916815260200191505b509250505060405180910390fd5b50600083858161136657fe5b04905080915050939250505056fe536166654d6174683a206d756c7469706c69636174696f6e206f766572666c6f77636c61696d656420616c72656164792c207472792031206d6f6e7468206c617465726f6e6c79206465762063616e2061646a7573742072657761726420616d6f756e74a2646970667358221220862e3729f69225524bddab096f5439ac4c7733dde8515d2ce20bf88b3fa89e2b64736f6c634300060c0033",
  "immutableReferences": {},
  "source": "// SPDX-License-Identifier: MIT\npragma solidity >=0.4.22 <0.9.0;\n\nimport './ARTXToken.sol';\n\n\n\ncontract SharingPool {\n\n  constructor(address _address) public {\n    artxAddress = _address;\n  }\n\n  \n\n  using SafeMath for uint256;\n\n  address public dev = msg.sender;\n  address public artxAddress;\n  uint256 public totalDepositAmount;\n  uint256 public basicPoint10000x = 1850000;\n  uint256 public manualTotalDepositAmount;\n  \n  \n\n  mapping(address => UserInfo) public userInfo;\n\n  struct UserInfo {\n    uint256 depositAmount;\n    uint256 rewardDiv; \n    uint256 nextClaimTime;\n  }\n\n  function changeDev(address _address) public {\n    require(msg.sender == dev, \"only dev can change Dev\");\n    dev = _address;\n  }\n\n  \n  receive() external payable {\n    // Send ETH to this contract for supporting dev\n    // Thank you for your support !\n  }\n\n  function devDonateithdraw(uint256 _amount) public {\n    // Disclaimer: this function only to withdraw ETH donation in the contract, NOT ARTX.Your ARTX is SAFE\n    require(msg.sender == dev, \"only dev can get donation\");\n    msg.sender.transfer(_amount);\n  }\n  \n\n  function returnARTXAddress() external view returns(address){\n    return artxAddress;\n  }\n\n  function setArtxAddress(address _address) external {\n    require(msg.sender == dev,\"only dev can change\");\n    artxAddress = _address;\n  }\n\n  function  getARTXBalance(address _address) public view returns(uint256){\n    ARTXToken artx = ARTXToken(artxAddress);\n    return artx.balanceOf(_address);\n  }\n\n  function returnContractARTX() public view returns(uint256){\n    return getARTXBalance(address(this));\n  }\n\n  //  function allowance(address _owner,address _spender) external view returns(uint256) {\n  //   ARTXToken artx = ARTXToken(artxAddress);\n  //   artx.allowance(_owner,_spender);\n  // }\n  \n  // This need toe be manually approve\n  // function approveARTX(address _spender , uint256 _amount) external {\n  //   ARTXToken artx = ARTXToken(artxAddress);\n  //   artx.approve(_spender,_amount);\n  // }\n\n  function deposit( uint256 _amount) public returns (bool){\n    // Mannually Approve this address to spend ARTX , then call this function\n    UserInfo storage user = userInfo[msg.sender];\n    ARTXToken artx = ARTXToken(artxAddress);\n    user.depositAmount = user.depositAmount.add(_amount);\n    totalDepositAmount = totalDepositAmount.add(_amount);\n    user.rewardDiv = user.depositAmount.mul(basicPoint10000x).div(totalDepositAmount);\n    // Would div basicPoint100x when claim Reward\n    artx.transferFrom(msg.sender,address(this),_amount);\n    return true;\n  }\n\n   function returnTotalReward () public view returns (uint256) {\n    return manualTotalDepositAmount;\n   }\n\n   function adjustManualTotalDepositAmount(uint256 _amount) public {\n     require(msg.sender == dev, \"only dev can adjust reward amount\");\n     manualTotalDepositAmount = manualTotalDepositAmount.add(_amount);\n   }\n     \n  \n\n\n\n\n    function withdraw() public {\n      // Claim before withdraw, or reward will be erased\n      UserInfo storage user = userInfo[msg.sender];\n      ARTXToken artx = ARTXToken(artxAddress);\n      uint256 withdrawAmount = user.depositAmount;\n      user.depositAmount = 0;\n      user.rewardDiv = 0;\n      totalDepositAmount = totalDepositAmount.sub(withdrawAmount);\n      require(withdrawAmount > 0,\"Not enough token to withdraw\");\n      artx.transfer(msg.sender, withdrawAmount);\n    }\n\n    function claim() public {\n      UserInfo storage user = userInfo[msg.sender];\n      ARTXToken artx = ARTXToken(artxAddress);\n      uint256 totalReward = returnTotalReward();\n      uint256 userClaimAmount = totalReward.mul(user.rewardDiv).div(basicPoint10000x);\n      require(userClaimAmount >0,\"Not enough reward to claim \");\n      require(block.timestamp >= user.nextClaimTime, \"claimed already, try 1 month later\");\n      user.nextClaimTime = block.timestamp.add(30 days);\n      artx.transfer(msg.sender,userClaimAmount);\n    }\n  }\n\n\n\n\n  \n",
  "sourcePath": "/Users/ok/Desktop/Projects/artx-sharing-pool/contracts/SharingPool.sol",
  "compiler": {
    "name": "solc",
    "version": "0.6.12+commit.27d51765.Emscripten.clang"
  },
  "schemaVersion": "3.3.4",
  "updatedAt": "2021-04-07T03:44:30.054Z",
  "networkType": "ethereum",
  "devdoc": {
    "kind": "dev",
    "methods": {},
    "version": 1
  },
  "userdoc": {
    "kind": "user",
    "methods": {},
    "version": 1
  }
}