{
  "contractName": "SharingPool",
  "abi": [
    {
      "inputs": [
        {
          "internalType": "address",
          "name": "_address",
          "type": "address"
        }
      ],
      "stateMutability": "nonpayable",
      "type": "constructor"
    },
    {
      "inputs": [],
      "name": "artxAddress",
      "outputs": [
        {
          "internalType": "address",
          "name": "",
          "type": "address"
        }
      ],
      "stateMutability": "view",
      "type": "function"
    },
    {
      "inputs": [],
      "name": "dev",
      "outputs": [
        {
          "internalType": "address",
          "name": "",
          "type": "address"
        }
      ],
      "stateMutability": "view",
      "type": "function"
    },
    {
      "inputs": [],
      "name": "totalDepositAmount",
      "outputs": [
        {
          "internalType": "uint256",
          "name": "",
          "type": "uint256"
        }
      ],
      "stateMutability": "view",
      "type": "function"
    },
    {
      "inputs": [
        {
          "internalType": "address",
          "name": "",
          "type": "address"
        }
      ],
      "name": "userInfo",
      "outputs": [
        {
          "internalType": "uint256",
          "name": "depositAmount",
          "type": "uint256"
        },
        {
          "internalType": "uint256",
          "name": "rewardDiv",
          "type": "uint256"
        },
        {
          "internalType": "uint256",
          "name": "claimedReward",
          "type": "uint256"
        }
      ],
      "stateMutability": "view",
      "type": "function"
    },
    {
      "inputs": [],
      "name": "returnARTXAddress",
      "outputs": [
        {
          "internalType": "address",
          "name": "",
          "type": "address"
        }
      ],
      "stateMutability": "view",
      "type": "function"
    },
    {
      "inputs": [
        {
          "internalType": "address",
          "name": "_address",
          "type": "address"
        }
      ],
      "name": "setArtxAddress",
      "outputs": [],
      "stateMutability": "nonpayable",
      "type": "function"
    },
    {
      "inputs": [
        {
          "internalType": "address",
          "name": "_address",
          "type": "address"
        }
      ],
      "name": "getARTXBalance",
      "outputs": [
        {
          "internalType": "uint256",
          "name": "",
          "type": "uint256"
        }
      ],
      "stateMutability": "view",
      "type": "function"
    },
    {
      "inputs": [],
      "name": "returnContractARTX",
      "outputs": [
        {
          "internalType": "uint256",
          "name": "",
          "type": "uint256"
        }
      ],
      "stateMutability": "view",
      "type": "function"
    },
    {
      "inputs": [
        {
          "internalType": "address",
          "name": "_owner",
          "type": "address"
        },
        {
          "internalType": "address",
          "name": "_spender",
          "type": "address"
        }
      ],
      "name": "allowance",
      "outputs": [
        {
          "internalType": "uint256",
          "name": "",
          "type": "uint256"
        }
      ],
      "stateMutability": "view",
      "type": "function"
    },
    {
      "inputs": [
        {
          "internalType": "uint256",
          "name": "_amount",
          "type": "uint256"
        }
      ],
      "name": "deposit",
      "outputs": [
        {
          "internalType": "bool",
          "name": "",
          "type": "bool"
        }
      ],
      "stateMutability": "nonpayable",
      "type": "function"
    }
  ],
  "bytecode": "0x6080604052336000806101000a81548173ffffffffffffffffffffffffffffffffffffffff021916908373ffffffffffffffffffffffffffffffffffffffff16021790555034801561005057600080fd5b50604051610aee380380610aee8339818101604052602081101561007357600080fd5b810190808051906020019092919050505080600160006101000a81548173ffffffffffffffffffffffffffffffffffffffff021916908373ffffffffffffffffffffffffffffffffffffffff16021790555050610a19806100d56000396000f3fe608060405234801561001057600080fd5b506004361061009e5760003560e01c8063b6b55f2511610066578063b6b55f25146101d3578063c5408d5014610217578063dd62ed3e14610235578063df413255146102ad578063ff45b553146102e15761009e565b80630b5956ad146100a35780631959a002146100c15780634165c5171461012757806391cca3db1461016b578063ab9db0b71461019f575b600080fd5b6100ab610339565b6040518082815260200191505060405180910390f35b610103600480360360208110156100d757600080fd5b81019080803573ffffffffffffffffffffffffffffffffffffffff169060200190929190505050610349565b60405180848152602001838152602001828152602001935050505060405180910390f35b6101696004803603602081101561013d57600080fd5b81019080803573ffffffffffffffffffffffffffffffffffffffff169060200190929190505050610373565b005b610173610478565b604051808273ffffffffffffffffffffffffffffffffffffffff16815260200191505060405180910390f35b6101a761049c565b604051808273ffffffffffffffffffffffffffffffffffffffff16815260200191505060405180910390f35b6101ff600480360360208110156101e957600080fd5b81019080803590602001909291905050506104c2565b60405180821515815260200191505060405180910390f35b61021f610659565b6040518082815260200191505060405180910390f35b6102976004803603604081101561024b57600080fd5b81019080803573ffffffffffffffffffffffffffffffffffffffff169060200190929190803573ffffffffffffffffffffffffffffffffffffffff16906020019092919050505061065f565b6040518082815260200191505060405180910390f35b6102b561074f565b604051808273ffffffffffffffffffffffffffffffffffffffff16815260200191505060405180910390f35b610323600480360360208110156102f757600080fd5b81019080803573ffffffffffffffffffffffffffffffffffffffff169060200190929190505050610779565b6040518082815260200191505060405180910390f35b600061034430610779565b905090565b60036020528060005260406000206000915090508060000154908060010154908060020154905083565b60008054906101000a900473ffffffffffffffffffffffffffffffffffffffff1673ffffffffffffffffffffffffffffffffffffffff163373ffffffffffffffffffffffffffffffffffffffff1614610434576040517f08c379a00000000000000000000000000000000000000000000000000000000081526004018080602001828103825260138152602001807f6f6e6c79206465762063616e206361686e67650000000000000000000000000081525060200191505060405180910390fd5b80600160006101000a81548173ffffffffffffffffffffffffffffffffffffffff021916908373ffffffffffffffffffffffffffffffffffffffff16021790555050565b60008054906101000a900473ffffffffffffffffffffffffffffffffffffffff1681565b600160009054906101000a900473ffffffffffffffffffffffffffffffffffffffff1681565b600080600360003373ffffffffffffffffffffffffffffffffffffffff1673ffffffffffffffffffffffffffffffffffffffff16815260200190815260200160002090506000600160009054906101000a900473ffffffffffffffffffffffffffffffffffffffff16905061054484836000015461084b90919063ffffffff16565b82600001819055506105618460025461084b90919063ffffffff16565b5061057b60025483600001546108d390919063ffffffff16565b82600101819055508073ffffffffffffffffffffffffffffffffffffffff166323b872dd3330876040518463ffffffff1660e01b8152600401808473ffffffffffffffffffffffffffffffffffffffff1681526020018373ffffffffffffffffffffffffffffffffffffffff1681526020018281526020019350505050602060405180830381600087803b15801561061257600080fd5b505af1158015610626573d6000803e3d6000fd5b505050506040513d602081101561063c57600080fd5b810190808051906020019092919050505050600192505050919050565b60025481565b600080600160009054906101000a900473ffffffffffffffffffffffffffffffffffffffff1690508073ffffffffffffffffffffffffffffffffffffffff1663dd62ed3e85856040518363ffffffff1660e01b8152600401808373ffffffffffffffffffffffffffffffffffffffff1681526020018273ffffffffffffffffffffffffffffffffffffffff1681526020019250505060206040518083038186803b15801561070c57600080fd5b505afa158015610720573d6000803e3d6000fd5b505050506040513d602081101561073657600080fd5b8101908080519060200190929190505050505092915050565b6000600160009054906101000a900473ffffffffffffffffffffffffffffffffffffffff16905090565b600080600160009054906101000a900473ffffffffffffffffffffffffffffffffffffffff1690508073ffffffffffffffffffffffffffffffffffffffff166370a08231846040518263ffffffff1660e01b8152600401808273ffffffffffffffffffffffffffffffffffffffff16815260200191505060206040518083038186803b15801561080857600080fd5b505afa15801561081c573d6000803e3d6000fd5b505050506040513d602081101561083257600080fd5b8101908080519060200190929190505050915050919050565b6000808284019050838110156108c9576040517f08c379a000000000000000000000000000000000000000000000000000000000815260040180806020018281038252601b8152602001807f536166654d6174683a206164646974696f6e206f766572666c6f77000000000081525060200191505060405180910390fd5b8091505092915050565b600061091583836040518060400160405280601a81526020017f536166654d6174683a206469766973696f6e206279207a65726f00000000000081525061091d565b905092915050565b600080831182906109c9576040517f08c379a00000000000000000000000000000000000000000000000000000000081526004018080602001828103825283818151815260200191508051906020019080838360005b8381101561098e578082015181840152602081019050610973565b50505050905090810190601f1680156109bb5780820380516001836020036101000a031916815260200191505b509250505060405180910390fd5b5060008385816109d557fe5b04905080915050939250505056fea264697066735822122042e7db339675dfd9656bea99310991ecacc520eac5680200df15bd8bcce73dc364736f6c634300060c0033",
  "immutableReferences": {},
  "source": "// SPDX-License-Identifier: MIT\npragma solidity >=0.4.22 <0.9.0;\n\nimport './ARTXToken.sol';\n\n\n\ncontract SharingPool {\n\n  constructor(address _address) public {\n    artxAddress = _address;\n  }\n\n  \n\n  using SafeMath for uint256;\n\n  address public dev = msg.sender;\n  address public artxAddress;\n  uint256 public totalDepositAmount;\n  \n\n  mapping(address => UserInfo) public userInfo;\n\n  struct UserInfo {\n    uint256 depositAmount;\n    uint256 rewardDiv; \n    uint256 claimedReward;\n  }\n  \n\n  function returnARTXAddress() external view returns(address){\n    return artxAddress;\n  }\n\n  function setArtxAddress(address _address) external {\n    require(msg.sender == dev,\"only dev can cahnge\");\n    artxAddress = _address;\n  }\n\n  function  getARTXBalance(address _address) public view returns(uint256){\n    ARTXToken artx = ARTXToken(artxAddress);\n    return artx.balanceOf(_address);\n  }\n\n  function returnContractARTX() public view returns(uint256){\n    return getARTXBalance(address(this));\n  }\n\n   function allowance(address _owner,address _spender) external view returns(uint256) {\n    ARTXToken artx = ARTXToken(artxAddress);\n    artx.allowance(_owner,_spender);\n  }\n  \n  // This need toe be manually approve\n  // function approveARTX(address _spender , uint256 _amount) external {\n  //   ARTXToken artx = ARTXToken(artxAddress);\n  //   artx.approve(_spender,_amount);\n  // }\n\n  function deposit( uint256 _amount) public returns (bool){\n    UserInfo storage user = userInfo[msg.sender];\n    ARTXToken artx = ARTXToken(artxAddress);\n    user.depositAmount = user.depositAmount.add(_amount);\n    totalDepositAmount.add(_amount);\n    user.rewardDiv = user.depositAmount.div(totalDepositAmount);\n    artx.transferFrom(msg.sender,address(this),_amount);\n    return true;\n  }\n\n \n\n  \n\n\n \n\n    \n  }\n\n\n\n\n  \n",
  "sourcePath": "/Users/ok/Desktop/Projects/artx-sharing-pool/contracts/SharingPool.sol",
  "compiler": {
    "name": "solc",
    "version": "0.6.12+commit.27d51765.Emscripten.clang"
  },
  "schemaVersion": "3.3.4",
  "updatedAt": "2021-04-05T07:35:24.367Z",
  "devdoc": {
    "kind": "dev",
    "methods": {},
    "version": 1
  },
  "userdoc": {
    "kind": "user",
    "methods": {},
    "version": 1
  }
}